{
  "contractName": "LPY",
  "abi": [
    {
      "inputs": [],
      "stateMutability": "nonpayable",
      "type": "constructor"
    },
    {
      "anonymous": false,
      "inputs": [
        {
          "indexed": true,
          "internalType": "address",
          "name": "owner",
          "type": "address"
        },
        {
          "indexed": true,
          "internalType": "address",
          "name": "spender",
          "type": "address"
        },
        {
          "indexed": false,
          "internalType": "uint256",
          "name": "value",
          "type": "uint256"
        }
      ],
      "name": "Approval",
      "type": "event"
    },
    {
      "anonymous": false,
      "inputs": [
        {
          "indexed": false,
          "internalType": "uint256",
          "name": "minTokensBeforeSwap",
          "type": "uint256"
        }
      ],
      "name": "MinTokensBeforeSwapUpdated",
      "type": "event"
    },
    {
      "anonymous": false,
      "inputs": [
        {
          "indexed": true,
          "internalType": "address",
          "name": "previousOwner",
          "type": "address"
        },
        {
          "indexed": true,
          "internalType": "address",
          "name": "newOwner",
          "type": "address"
        }
      ],
      "name": "OwnershipTransferred",
      "type": "event"
    },
    {
      "anonymous": false,
      "inputs": [
        {
          "indexed": true,
          "internalType": "address",
          "name": "pair",
          "type": "address"
        },
        {
          "indexed": true,
          "internalType": "bool",
          "name": "value",
          "type": "bool"
        }
      ],
      "name": "SetAutomatedMarketMakerPair",
      "type": "event"
    },
    {
      "anonymous": false,
      "inputs": [
        {
          "indexed": false,
          "internalType": "uint256",
          "name": "tokensSwapped",
          "type": "uint256"
        },
        {
          "indexed": false,
          "internalType": "uint256",
          "name": "ethReceived",
          "type": "uint256"
        },
        {
          "indexed": false,
          "internalType": "uint256",
          "name": "tokensIntoLiqudity",
          "type": "uint256"
        }
      ],
      "name": "SwapAndLiquify",
      "type": "event"
    },
    {
      "anonymous": false,
      "inputs": [
        {
          "indexed": false,
          "internalType": "bool",
          "name": "enabled",
          "type": "bool"
        }
      ],
      "name": "SwapAndLiquifyEnabledUpdated",
      "type": "event"
    },
    {
      "anonymous": false,
      "inputs": [
        {
          "indexed": true,
          "internalType": "address",
          "name": "from",
          "type": "address"
        },
        {
          "indexed": true,
          "internalType": "address",
          "name": "to",
          "type": "address"
        },
        {
          "indexed": false,
          "internalType": "uint256",
          "name": "value",
          "type": "uint256"
        }
      ],
      "name": "Transfer",
      "type": "event"
    },
    {
      "inputs": [
        {
          "internalType": "address",
          "name": "",
          "type": "address"
        }
      ],
      "name": "_blacklist",
      "outputs": [
        {
          "internalType": "bool",
          "name": "",
          "type": "bool"
        }
      ],
      "stateMutability": "view",
      "type": "function",
      "constant": true
    },
    {
      "inputs": [],
      "name": "_liquidityFee",
      "outputs": [
        {
          "internalType": "uint256",
          "name": "",
          "type": "uint256"
        }
      ],
      "stateMutability": "view",
      "type": "function",
      "constant": true
    },
    {
      "inputs": [],
      "name": "_marketing",
      "outputs": [
        {
          "internalType": "address",
          "name": "",
          "type": "address"
        }
      ],
      "stateMutability": "view",
      "type": "function",
      "constant": true
    },
    {
      "inputs": [],
      "name": "_marketingFee",
      "outputs": [
        {
          "internalType": "uint256",
          "name": "",
          "type": "uint256"
        }
      ],
      "stateMutability": "view",
      "type": "function",
      "constant": true
    },
    {
      "inputs": [],
      "name": "_maxTxAmount",
      "outputs": [
        {
          "internalType": "uint256",
          "name": "",
          "type": "uint256"
        }
      ],
      "stateMutability": "view",
      "type": "function",
      "constant": true
    },
    {
      "inputs": [],
      "name": "_taxFee",
      "outputs": [
        {
          "internalType": "uint256",
          "name": "",
          "type": "uint256"
        }
      ],
      "stateMutability": "view",
      "type": "function",
      "constant": true
    },
    {
      "inputs": [
        {
          "internalType": "address",
          "name": "",
          "type": "address"
        }
      ],
      "name": "automatedMarketMakerPairs",
      "outputs": [
        {
          "internalType": "bool",
          "name": "",
          "type": "bool"
        }
      ],
      "stateMutability": "view",
      "type": "function",
      "constant": true
    },
    {
      "inputs": [],
      "name": "owner",
      "outputs": [
        {
          "internalType": "address",
          "name": "",
          "type": "address"
        }
      ],
      "stateMutability": "view",
      "type": "function",
      "constant": true
    },
    {
      "inputs": [],
      "name": "pancakePair02",
      "outputs": [
        {
          "internalType": "address",
          "name": "",
          "type": "address"
        }
      ],
      "stateMutability": "view",
      "type": "function",
      "constant": true
    },
    {
      "inputs": [],
      "name": "pancakeRouter02",
      "outputs": [
        {
          "internalType": "contract IPancakeRouter02",
          "name": "",
          "type": "address"
        }
      ],
      "stateMutability": "view",
      "type": "function",
      "constant": true
    },
    {
      "inputs": [],
      "name": "renounceOwnership",
      "outputs": [],
      "stateMutability": "nonpayable",
      "type": "function"
    },
    {
      "inputs": [],
      "name": "swapAndLiquifyEnabled",
      "outputs": [
        {
          "internalType": "bool",
          "name": "",
          "type": "bool"
        }
      ],
      "stateMutability": "view",
      "type": "function",
      "constant": true
    },
    {
      "inputs": [
        {
          "internalType": "address",
          "name": "newOwner",
          "type": "address"
        }
      ],
      "name": "transferOwnership",
      "outputs": [],
      "stateMutability": "nonpayable",
      "type": "function"
    },
    {
      "stateMutability": "payable",
      "type": "receive",
      "payable": true
    },
    {
      "inputs": [],
      "name": "name",
      "outputs": [
        {
          "internalType": "string",
          "name": "",
          "type": "string"
        }
      ],
      "stateMutability": "view",
      "type": "function",
      "constant": true
    },
    {
      "inputs": [],
      "name": "symbol",
      "outputs": [
        {
          "internalType": "string",
          "name": "",
          "type": "string"
        }
      ],
      "stateMutability": "view",
      "type": "function",
      "constant": true
    },
    {
      "inputs": [],
      "name": "decimals",
      "outputs": [
        {
          "internalType": "uint8",
          "name": "",
          "type": "uint8"
        }
      ],
      "stateMutability": "view",
      "type": "function",
      "constant": true
    },
    {
      "inputs": [],
      "name": "totalSupply",
      "outputs": [
        {
          "internalType": "uint256",
          "name": "",
          "type": "uint256"
        }
      ],
      "stateMutability": "view",
      "type": "function",
      "constant": true
    },
    {
      "inputs": [
        {
          "internalType": "uint256",
          "name": "_new",
          "type": "uint256"
        }
      ],
      "name": "updateSwapAmount",
      "outputs": [],
      "stateMutability": "nonpayable",
      "type": "function"
    },
    {
      "inputs": [
        {
          "internalType": "address",
          "name": "_blacklistAddress",
          "type": "address"
        },
        {
          "internalType": "bool",
          "name": "_isBlacklisted",
          "type": "bool"
        }
      ],
      "name": "setBlacklisted",
      "outputs": [],
      "stateMutability": "nonpayable",
      "type": "function"
    },
    {
      "inputs": [
        {
          "internalType": "uint256",
          "name": "_newMax",
          "type": "uint256"
        }
      ],
      "name": "updateMaxPerc",
      "outputs": [],
      "stateMutability": "nonpayable",
      "type": "function"
    },
    {
      "inputs": [
        {
          "internalType": "address",
          "name": "_new",
          "type": "address"
        }
      ],
      "name": "changeMarketing",
      "outputs": [],
      "stateMutability": "nonpayable",
      "type": "function"
    },
    {
      "inputs": [
        {
          "internalType": "address",
          "name": "_new",
          "type": "address"
        }
      ],
      "name": "changeRouter",
      "outputs": [],
      "stateMutability": "nonpayable",
      "type": "function"
    },
    {
      "inputs": [
        {
          "internalType": "address",
          "name": "account",
          "type": "address"
        }
      ],
      "name": "balanceOf",
      "outputs": [
        {
          "internalType": "uint256",
          "name": "",
          "type": "uint256"
        }
      ],
      "stateMutability": "view",
      "type": "function",
      "constant": true
    },
    {
      "inputs": [
        {
          "internalType": "address",
          "name": "recipient",
          "type": "address"
        },
        {
          "internalType": "uint256",
          "name": "amount",
          "type": "uint256"
        }
      ],
      "name": "transfer",
      "outputs": [
        {
          "internalType": "bool",
          "name": "",
          "type": "bool"
        }
      ],
      "stateMutability": "nonpayable",
      "type": "function"
    },
    {
      "inputs": [
        {
          "internalType": "address",
          "name": "owner",
          "type": "address"
        },
        {
          "internalType": "address",
          "name": "spender",
          "type": "address"
        }
      ],
      "name": "allowance",
      "outputs": [
        {
          "internalType": "uint256",
          "name": "",
          "type": "uint256"
        }
      ],
      "stateMutability": "view",
      "type": "function",
      "constant": true
    },
    {
      "inputs": [
        {
          "internalType": "address",
          "name": "spender",
          "type": "address"
        },
        {
          "internalType": "uint256",
          "name": "amount",
          "type": "uint256"
        }
      ],
      "name": "approve",
      "outputs": [
        {
          "internalType": "bool",
          "name": "",
          "type": "bool"
        }
      ],
      "stateMutability": "nonpayable",
      "type": "function"
    },
    {
      "inputs": [
        {
          "internalType": "address",
          "name": "sender",
          "type": "address"
        },
        {
          "internalType": "address",
          "name": "recipient",
          "type": "address"
        },
        {
          "internalType": "uint256",
          "name": "amount",
          "type": "uint256"
        }
      ],
      "name": "transferFrom",
      "outputs": [
        {
          "internalType": "bool",
          "name": "",
          "type": "bool"
        }
      ],
      "stateMutability": "nonpayable",
      "type": "function"
    },
    {
      "inputs": [
        {
          "internalType": "address",
          "name": "spender",
          "type": "address"
        },
        {
          "internalType": "uint256",
          "name": "addedValue",
          "type": "uint256"
        }
      ],
      "name": "increaseAllowance",
      "outputs": [
        {
          "internalType": "bool",
          "name": "",
          "type": "bool"
        }
      ],
      "stateMutability": "nonpayable",
      "type": "function"
    },
    {
      "inputs": [
        {
          "internalType": "address",
          "name": "spender",
          "type": "address"
        },
        {
          "internalType": "uint256",
          "name": "subtractedValue",
          "type": "uint256"
        }
      ],
      "name": "decreaseAllowance",
      "outputs": [
        {
          "internalType": "bool",
          "name": "",
          "type": "bool"
        }
      ],
      "stateMutability": "nonpayable",
      "type": "function"
    },
    {
      "inputs": [
        {
          "internalType": "address",
          "name": "account",
          "type": "address"
        }
      ],
      "name": "isExcludedFromReward",
      "outputs": [
        {
          "internalType": "bool",
          "name": "",
          "type": "bool"
        }
      ],
      "stateMutability": "view",
      "type": "function",
      "constant": true
    },
    {
      "inputs": [],
      "name": "totalFees",
      "outputs": [
        {
          "internalType": "uint256",
          "name": "",
          "type": "uint256"
        }
      ],
      "stateMutability": "view",
      "type": "function",
      "constant": true
    },
    {
      "inputs": [
        {
          "internalType": "uint256",
          "name": "tAmount",
          "type": "uint256"
        }
      ],
      "name": "deliver",
      "outputs": [],
      "stateMutability": "nonpayable",
      "type": "function"
    },
    {
      "inputs": [
        {
          "internalType": "uint256",
          "name": "tAmount",
          "type": "uint256"
        },
        {
          "internalType": "bool",
          "name": "deductTransferFee",
          "type": "bool"
        }
      ],
      "name": "reflectionFromToken",
      "outputs": [
        {
          "internalType": "uint256",
          "name": "",
          "type": "uint256"
        }
      ],
      "stateMutability": "view",
      "type": "function",
      "constant": true
    },
    {
      "inputs": [
        {
          "internalType": "uint256",
          "name": "rAmount",
          "type": "uint256"
        }
      ],
      "name": "tokenFromReflection",
      "outputs": [
        {
          "internalType": "uint256",
          "name": "",
          "type": "uint256"
        }
      ],
      "stateMutability": "view",
      "type": "function",
      "constant": true
    },
    {
      "inputs": [
        {
          "internalType": "address",
          "name": "pair",
          "type": "address"
        },
        {
          "internalType": "bool",
          "name": "value",
          "type": "bool"
        }
      ],
      "name": "setAutomatedMarketMakerPair",
      "outputs": [],
      "stateMutability": "nonpayable",
      "type": "function"
    },
    {
      "inputs": [
        {
          "internalType": "address",
          "name": "account",
          "type": "address"
        }
      ],
      "name": "excludeFromReward",
      "outputs": [],
      "stateMutability": "nonpayable",
      "type": "function"
    },
    {
      "inputs": [
        {
          "internalType": "address",
          "name": "account",
          "type": "address"
        }
      ],
      "name": "includeInReward",
      "outputs": [],
      "stateMutability": "nonpayable",
      "type": "function"
    },
    {
      "inputs": [
        {
          "internalType": "address",
          "name": "account",
          "type": "address"
        }
      ],
      "name": "excludeFromLimit",
      "outputs": [],
      "stateMutability": "nonpayable",
      "type": "function"
    },
    {
      "inputs": [
        {
          "internalType": "address",
          "name": "account",
          "type": "address"
        }
      ],
      "name": "includeInLimit",
      "outputs": [],
      "stateMutability": "nonpayable",
      "type": "function"
    },
    {
      "inputs": [
        {
          "internalType": "address",
          "name": "account",
          "type": "address"
        }
      ],
      "name": "excludeFromFee",
      "outputs": [],
      "stateMutability": "nonpayable",
      "type": "function"
    },
    {
      "inputs": [
        {
          "internalType": "address",
          "name": "account",
          "type": "address"
        }
      ],
      "name": "includeInFee",
      "outputs": [],
      "stateMutability": "nonpayable",
      "type": "function"
    },
    {
      "inputs": [
        {
          "internalType": "uint256",
          "name": "liquidityPerc",
          "type": "uint256"
        },
        {
          "internalType": "uint256",
          "name": "marketingPerc",
          "type": "uint256"
        },
        {
          "internalType": "uint256",
          "name": "taxPerc",
          "type": "uint256"
        }
      ],
      "name": "updateFees",
      "outputs": [],
      "stateMutability": "nonpayable",
      "type": "function"
    },
    {
      "inputs": [
        {
          "internalType": "bool",
          "name": "_enabled",
          "type": "bool"
        }
      ],
      "name": "setSwapAndLiquifyEnabled",
      "outputs": [],
      "stateMutability": "nonpayable",
      "type": "function"
    },
    {
      "inputs": [
        {
          "internalType": "address",
          "name": "account",
          "type": "address"
        }
      ],
      "name": "isExcludedFromFee",
      "outputs": [
        {
          "internalType": "bool",
          "name": "",
          "type": "bool"
        }
      ],
      "stateMutability": "view",
      "type": "function",
      "constant": true
    },
    {
      "inputs": [
        {
          "internalType": "address",
          "name": "account",
          "type": "address"
        }
      ],
      "name": "isExcludedFromLimit",
      "outputs": [
        {
          "internalType": "bool",
          "name": "",
          "type": "bool"
        }
      ],
      "stateMutability": "view",
      "type": "function",
      "constant": true
    }
  ],
  "bytecode": "0x60806040526b204fce5e3e250261100000006009819055620000249060001962000d94565b620000329060001962000dc1565b600a556040805180820190915260138082527f4c65697375726550617920546f6b656e2056320000000000000000000000000060209092019182526200007b91600c9162000cd8565b50604080518082019091526003808252624c505960e81b6020909201918252620000a891600d9162000cd8565b50600e805460ff1916601290811790915561012c600f81905560105560c860118190559055606460138190556014556016805460ff60a81b1916600160a81b17905562ed4e006018819055612710601c55610bb8601d556200011b90429062001abf6200046b602090811b91909117901c565b601e556969e10de76676d0800000601f553480156200013957600080fd5b50620001453362000480565b600a5433600090815260026020908152604080832093909355825163c45a015560e01b815292517310ed43c718714eb63d5aa57b78b54704e256024e93849263c45a015592600480840193829003018186803b158015620001a557600080fd5b505afa158015620001ba573d6000803e3d6000fd5b505050506040513d601f19601f82011682018060405250810190620001e0919062000ddb565b6001600160a01b031663c9c6539630846001600160a01b031663ad5c46486040518163ffffffff1660e01b815260040160206040518083038186803b1580156200022957600080fd5b505afa1580156200023e573d6000803e3d6000fd5b505050506040513d601f19601f8201168201806040525081019062000264919062000ddb565b6040516001600160e01b031960e085901b1681526001600160a01b03928316600482015291166024820152604401602060405180830381600087803b158015620002ad57600080fd5b505af1158015620002c2573d6000803e3d6000fd5b505050506040513d601f19601f82011682018060405250810190620002e8919062000ddb565b9050620002fd6000546001600160a01b031690565b601780546001600160a01b03199081166001600160a01b03938416179091556016805482168484161790556015805490911691841691909117905562000345816001620004d0565b6001600560006200035e6000546001600160a01b031690565b6001600160a01b0316815260208082019290925260409081016000908120805494151560ff199586161790553081526005909252812080549092166001908117909255600690620003b76000546001600160a01b031690565b6001600160a01b03908116825260208083019390935260409182016000908120805495151560ff199687161790553081526006909352818320805485166001908117909155908516835291208054909216179055620004133390565b6001600160a01b031660006001600160a01b03167fddf252ad1be2c89b69c2b068fc378daa952ba7f163c4a11628f55a4df523b3ef6009546040516200045b91815260200190565b60405180910390a3505062000ea4565b600062000479828462000dc1565b9392505050565b600080546001600160a01b038381166001600160a01b0319831681178455604051919092169283917f8be0079c531659141344cd1fd0a4f28419497f9722a3daafe3b4186f6b6457e09190a35050565b6001600160a01b038216600090815260208052604090205460ff16151581151514156200056a5760405162461bcd60e51b815260206004820152603d60248201527f4c50593a204175746f6d61746564206d61726b6574206d616b6572207061697260448201527f20697320616c72656164792073657420746f20746861742076616c756500000060648201526084015b60405180910390fd5b6001600160a01b03821660009081526020805260409020805460ff19168215801591909117909155620005b357620005a28262000605565b620005ad826200077e565b620005c9565b620005be82620007ed565b620005c982620009da565b604051811515906001600160a01b038416907fffa9187bf1f18bf477bd0ea1bcbb64e93b6a98132473929edfce215cd9b16fab90600090a35050565b6000546001600160a01b03163314620006505760405162461bcd60e51b8152602060048201819052602482015260008051602062004206833981519152604482015260640162000561565b6001600160a01b03811660009081526007602052604090205460ff1615620006bb5760405162461bcd60e51b815260206004820152601b60248201527f4163636f756e7420697320616c7265616479206578636c756465640000000000604482015260640162000561565b6001600160a01b0381166000908152600260205260409020541562000718576001600160a01b038116600090815260026020526040902054620006fe9062000a46565b6001600160a01b0382166000908152600360205260409020555b6001600160a01b03166000818152600760205260408120805460ff191660019081179091556008805491820181559091527ff3f7a9fe364faab93b216da50a3214154f22a0a2b415b23a84c8169e8b636ee30180546001600160a01b0319169091179055565b6000546001600160a01b03163314620007c95760405162461bcd60e51b8152602060048201819052602482015260008051602062004206833981519152604482015260640162000561565b6001600160a01b03166000908152600660205260409020805460ff19166001179055565b6000546001600160a01b03163314620008385760405162461bcd60e51b8152602060048201819052602482015260008051602062004206833981519152604482015260640162000561565b6001600160a01b03811660009081526007602052604090205460ff16620008a25760405162461bcd60e51b815260206004820152601b60248201527f4163636f756e7420697320616c726561647920696e636c756465640000000000604482015260640162000561565b60005b600854811015620009d657816001600160a01b031660088281548110620008d057620008d062000e06565b6000918252602090912001546001600160a01b03161415620009c15760088054620008fe9060019062000dc1565b8154811062000911576200091162000e06565b600091825260209091200154600880546001600160a01b03909216918390811062000940576200094062000e06565b600091825260208083209190910180546001600160a01b0319166001600160a01b039485161790559184168152600382526040808220829055600790925220805460ff1916905560088054806200099b576200099b62000e1c565b600082815260209020810160001990810180546001600160a01b03191690550190555050565b80620009cd8162000e32565b915050620008a5565b5050565b6000546001600160a01b0316331462000a255760405162461bcd60e51b8152602060048201819052602482015260008051602062004206833981519152604482015260640162000561565b6001600160a01b03166000908152600660205260409020805460ff19169055565b6000600a5482111562000aaf5760405162461bcd60e51b815260206004820152602a60248201527f416d6f756e74206d757374206265206c657373207468616e20746f74616c207260448201526965666c656374696f6e7360b01b606482015260840162000561565b600062000abb62000ad7565b905062000479818462000b0a60201b62001acb1790919060201c565b6000808062000ae562000b18565b9150915062000b03818362000b0a60201b62001acb1790919060201c565b9250505090565b600062000479828462000e50565b600a546009546000918291825b60085481101562000c985782600260006008848154811062000b4b5762000b4b62000e06565b60009182526020808320909101546001600160a01b03168352820192909252604001902054118062000bba575081600360006008848154811062000b935762000b9362000e06565b60009182526020808320909101546001600160a01b03168352820192909252604001902054115b1562000bd157600a54600954945094505050509091565b62000c28600260006008848154811062000bef5762000bef62000e06565b60009182526020808320909101546001600160a01b03168352828101939093526040909101902054859162001abf6200046b821b17901c565b925062000c81600360006008848154811062000c485762000c4862000e06565b60009182526020808320909101546001600160a01b03168352828101939093526040909101902054849162001abf6200046b821b17901c565b91508062000c8f8162000e32565b91505062000b25565b5062000cb7600954600a5462000b0a60201b62001acb1790919060201c565b82101562000ccf57600a546009549350935050509091565b90939092509050565b82805462000ce69062000e67565b90600052602060002090601f01602090048101928262000d0a576000855562000d55565b82601f1062000d2557805160ff191683800117855562000d55565b8280016001018555821562000d55579182015b8281111562000d5557825182559160200191906001019062000d38565b5062000d6392915062000d67565b5090565b5b8082111562000d63576000815560010162000d68565b634e487b7160e01b600052601260045260246000fd5b60008262000da65762000da662000d7e565b500690565b634e487b7160e01b600052601160045260246000fd5b60008282101562000dd65762000dd662000dab565b500390565b60006020828403121562000dee57600080fd5b81516001600160a01b03811681146200047957600080fd5b634e487b7160e01b600052603260045260246000fd5b634e487b7160e01b600052603160045260246000fd5b600060001982141562000e495762000e4962000dab565b5060010190565b60008262000e625762000e6262000d7e565b500490565b600181811c9082168062000e7c57607f821691505b6020821081141562000e9e57634e487b7160e01b600052602260045260246000fd5b50919050565b6133528062000eb46000396000f3fe6080604052600436106102765760003560e01c80636bc87c3a1161014f578063a20623ce116100c1578063c83d788b1161007a578063c83d788b1461079f578063d01dd6d2146107bf578063d94160e0146107df578063dd62ed3e14610818578063ea2f0b371461085e578063f2fde38b1461087e57600080fd5b8063a20623ce146106c0578063a457c2d7146106f0578063a9059cbb14610710578063ab3b554514610730578063b62496f514610750578063c49b9a801461077f57600080fd5b806388f820201161011357806388f82020146105f45780638d7dd8371461062d5780638da5cb5b1461064d57806391d919a91461066b57806395d89b411461068b5780639a7a23d6146106a057600080fd5b80636bc87c3a1461057357806370a0823114610589578063715018a6146105a95780637d1db4a5146105be5780637dd77049146105d457600080fd5b80633685d419116101e85780634549b039116101ac5780634549b039146104815780634a74bb02146104a157806352390c02146104c25780635342acb4146104e257806362940cc41461051b5780636b869f6c1461055357600080fd5b80633685d419146103eb578063395093511461040b5780633b124fe71461042b5780633bd5d17314610441578063437823ec1461046157600080fd5b8063224290851161023a578063224290851461033357806322976e0d1461035357806323b872dd146103695780632d83811914610389578063313ce567146103a9578063340ac20f146103cb57600080fd5b806306fdde0314610282578063095ea7b3146102ad5780630bd3a7f9146102dd57806313114a9d146102ff57806318160ddd1461031e57600080fd5b3661027d57005b600080fd5b34801561028e57600080fd5b5061029761089e565b6040516102a49190612edc565b60405180910390f35b3480156102b957600080fd5b506102cd6102c8366004612f46565b610930565b60405190151581526020016102a4565b3480156102e957600080fd5b506102fd6102f8366004612f72565b610947565b005b34801561030b57600080fd5b50600b545b6040519081526020016102a4565b34801561032a57600080fd5b50600954610310565b34801561033f57600080fd5b506102fd61034e366004612f8f565b61099e565b34801561035f57600080fd5b5061031060135481565b34801561037557600080fd5b506102cd610384366004612fbb565b610ad7565b34801561039557600080fd5b506103106103a4366004612ffc565b610b40565b3480156103b557600080fd5b50600e5460405160ff90911681526020016102a4565b3480156103d757600080fd5b506102fd6103e6366004612f72565b610bc4565b3480156103f757600080fd5b506102fd610406366004612f72565b610fef565b34801561041757600080fd5b506102cd610426366004612f46565b6111a6565b34801561043757600080fd5b5061031060115481565b34801561044d57600080fd5b506102fd61045c366004612ffc565b6111dc565b34801561046d57600080fd5b506102fd61047c366004612f72565b611349565b34801561048d57600080fd5b5061031061049c36600461302a565b611397565b3480156104ad57600080fd5b506016546102cd90600160a81b900460ff1681565b3480156104ce57600080fd5b506102fd6104dd366004612f72565b611426565b3480156104ee57600080fd5b506102cd6104fd366004612f72565b6001600160a01b031660009081526005602052604090205460ff1690565b34801561052757600080fd5b5060175461053b906001600160a01b031681565b6040516001600160a01b0390911681526020016102a4565b34801561055f57600080fd5b5060165461053b906001600160a01b031681565b34801561057f57600080fd5b50610310600f5481565b34801561059557600080fd5b506103106105a4366004612f72565b611579565b3480156105b557600080fd5b506102fd6115d8565b3480156105ca57600080fd5b50610310601d5481565b3480156105e057600080fd5b506102fd6105ef366004612ffc565b61160e565b34801561060057600080fd5b506102cd61060f366004612f72565b6001600160a01b031660009081526007602052604090205460ff1690565b34801561063957600080fd5b506102fd610648366004612f72565b6116ae565b34801561065957600080fd5b506000546001600160a01b031661053b565b34801561067757600080fd5b506102fd610686366004612f72565b61170f565b34801561069757600080fd5b5061029761175a565b3480156106ac57600080fd5b506102fd6106bb366004613056565b611769565b3480156106cc57600080fd5b506102cd6106db366004612f72565b60016020526000908152604090205460ff1681565b3480156106fc57600080fd5b506102cd61070b366004612f46565b611821565b34801561071c57600080fd5b506102cd61072b366004612f46565b611870565b34801561073c57600080fd5b506102fd61074b366004612ffc565b61187d565b34801561075c57600080fd5b506102cd61076b366004612f72565b602080526000908152604090205460ff1681565b34801561078b57600080fd5b506102fd61079a366004613082565b6118ac565b3480156107ab57600080fd5b5060155461053b906001600160a01b031681565b3480156107cb57600080fd5b506102fd6107da366004613056565b61192e565b3480156107eb57600080fd5b506102cd6107fa366004612f72565b6001600160a01b031660009081526006602052604090205460ff1690565b34801561082457600080fd5b5061031061083336600461309d565b6001600160a01b03918216600090815260046020908152604080832093909416825291909152205490565b34801561086a57600080fd5b506102fd610879366004612f72565b6119d9565b34801561088a57600080fd5b506102fd610899366004612f72565b611a24565b6060600c80546108ad906130d6565b80601f01602080910402602001604051908101604052809291908181526020018280546108d9906130d6565b80156109265780601f106108fb57610100808354040283529160200191610926565b820191906000526020600020905b81548152906001019060200180831161090957829003601f168201915b5050505050905090565b600061093d338484611ad7565b5060015b92915050565b6000546001600160a01b0316331461097a5760405162461bcd60e51b815260040161097190613111565b60405180910390fd5b6001600160a01b03166000908152600660205260409020805460ff19166001179055565b6000546001600160a01b031633146109c85760405162461bcd60e51b815260040161097190613111565b6102586109df826109d98686611bfb565b90611bfb565b1115610a2d5760405162461bcd60e51b815260206004820181905260248201527f46656573206d757374206e6f742062652067726561746572207468616e2036256044820152606401610971565b600f5483101580610a4057506013548210155b80610a4d57506011548110155b15610ac95742610a6a601854601e54611bfb90919063ffffffff16565b1115610ac45760405162461bcd60e51b815260206004820152602360248201527f546178206368616e676520696e74657276616c20686173206e6f7420726561636044820152621a195960ea1b6064820152608401610971565b42601e555b600f92909255601355601155565b6000610ae4848484611c07565b610b368433610b31856040518060600160405280602881526020016132d0602891396001600160a01b038a1660009081526004602090815260408083203384529091529020549190611f7e565b611ad7565b5060019392505050565b6000600a54821115610ba75760405162461bcd60e51b815260206004820152602a60248201527f416d6f756e74206d757374206265206c657373207468616e20746f74616c207260448201526965666c656374696f6e7360b01b6064820152608401610971565b6000610bb1611faa565b9050610bbd8382611acb565b9392505050565b6000546001600160a01b03163314610bee5760405162461bcd60e51b815260040161097190613111565b6015546001600160a01b0382811691161415610c5c5760405162461bcd60e51b815260206004820152602760248201527f43616e6e6f74206368616e676520726f7574657220746f207468652073616d65604482015266103937baba32b960c91b6064820152608401610971565b601580546001600160a01b0319166001600160a01b0383169081179091556040805163c45a015560e01b815290516000929163c45a0155916004808301926020929190829003018186803b158015610cb357600080fd5b505afa158015610cc7573d6000803e3d6000fd5b505050506040513d601f19601f82011682018060405250810190610ceb9190613146565b6001600160a01b031663e6a4390530601560009054906101000a90046001600160a01b03166001600160a01b031663ad5c46486040518163ffffffff1660e01b815260040160206040518083038186803b158015610d4857600080fd5b505afa158015610d5c573d6000803e3d6000fd5b505050506040513d601f19601f82011682018060405250810190610d809190613146565b6040516001600160e01b031960e085901b1681526001600160a01b0392831660048201529116602482015260440160206040518083038186803b158015610dc657600080fd5b505afa158015610dda573d6000803e3d6000fd5b505050506040513d601f19601f82011682018060405250810190610dfe9190613146565b90506001600160a01b038116610fac57601560009054906101000a90046001600160a01b03166001600160a01b031663c45a01556040518163ffffffff1660e01b815260040160206040518083038186803b158015610e5c57600080fd5b505afa158015610e70573d6000803e3d6000fd5b505050506040513d601f19601f82011682018060405250810190610e949190613146565b6001600160a01b031663c9c6539630601560009054906101000a90046001600160a01b03166001600160a01b031663ad5c46486040518163ffffffff1660e01b815260040160206040518083038186803b158015610ef157600080fd5b505afa158015610f05573d6000803e3d6000fd5b505050506040513d601f19601f82011682018060405250810190610f299190613146565b6040516001600160e01b031960e085901b1681526001600160a01b03928316600482015291166024820152604401602060405180830381600087803b158015610f7157600080fd5b505af1158015610f85573d6000803e3d6000fd5b505050506040513d601f19601f82011682018060405250810190610fa99190613146565b90505b610fb7816001611fcd565b6001600160a01b03166000818152600660205260409020805460ff19166001179055601680546001600160a01b031916909117905550565b6000546001600160a01b031633146110195760405162461bcd60e51b815260040161097190613111565b6001600160a01b03811660009081526007602052604090205460ff166110815760405162461bcd60e51b815260206004820152601b60248201527f4163636f756e7420697320616c726561647920696e636c7564656400000000006044820152606401610971565b60005b6008548110156111a257816001600160a01b0316600882815481106110ab576110ab613163565b6000918252602090912001546001600160a01b0316141561119057600880546110d69060019061318f565b815481106110e6576110e6613163565b600091825260209091200154600880546001600160a01b03909216918390811061111257611112613163565b600091825260208083209190910180546001600160a01b0319166001600160a01b039485161790559184168152600382526040808220829055600790925220805460ff19169055600880548061116a5761116a6131a6565b600082815260209020810160001990810180546001600160a01b03191690550190555050565b8061119a816131bc565b915050611084565b5050565b3360008181526004602090815260408083206001600160a01b0387168452909152812054909161093d918590610b319086611bfb565b3360008181526007602052604090205460ff16156112515760405162461bcd60e51b815260206004820152602c60248201527f4578636c75646564206164647265737365732063616e6e6f742063616c6c207460448201526b3434b990333ab731ba34b7b760a11b6064820152608401610971565b6001600160a01b03811660009081526001602052604090205460ff16156112d25760405162461bcd60e51b815260206004820152602f60248201527f426c61636b6c6973746564206164647265737365732063616e6e6f742063616c60448201526e36103a3434b990333ab731ba34b7b760891b6064820152608401610971565b60006112dd836120f2565b5050506001600160a01b03861660009081526002602052604090205493945061130b93925084915050611abf565b6001600160a01b038316600090815260026020526040902055600a546113319082611abf565b600a55600b546113419084611bfb565b600b55505050565b6000546001600160a01b031633146113735760405162461bcd60e51b815260040161097190613111565b6001600160a01b03166000908152600560205260409020805460ff19166001179055565b60006009548311156113eb5760405162461bcd60e51b815260206004820152601f60248201527f416d6f756e74206d757374206265206c657373207468616e20737570706c79006044820152606401610971565b8161140b5760006113fb846120f2565b5094965061094195505050505050565b6000611416846120f2565b5093965061094195505050505050565b6000546001600160a01b031633146114505760405162461bcd60e51b815260040161097190613111565b6001600160a01b03811660009081526007602052604090205460ff16156114b95760405162461bcd60e51b815260206004820152601b60248201527f4163636f756e7420697320616c7265616479206578636c7564656400000000006044820152606401610971565b6001600160a01b03811660009081526002602052604090205415611513576001600160a01b0381166000908152600260205260409020546114f990610b40565b6001600160a01b0382166000908152600360205260409020555b6001600160a01b03166000818152600760205260408120805460ff191660019081179091556008805491820181559091527ff3f7a9fe364faab93b216da50a3214154f22a0a2b415b23a84c8169e8b636ee30180546001600160a01b0319169091179055565b6001600160a01b03811660009081526007602052604081205460ff16156115b657506001600160a01b031660009081526003602052604090205490565b6001600160a01b03821660009081526002602052604090205461094190610b40565b6000546001600160a01b031633146116025760405162461bcd60e51b815260040161097190613111565b61160c600061214d565b565b6000546001600160a01b031633146116385760405162461bcd60e51b815260040161097190613111565b601c548111156116a95760405162461bcd60e51b815260206004820152603660248201527f4d6178207472616e73616374696f6e2070657263656e74616765206d757374206044820152753132903632b9b9903a3430b710383932b1b4b9b4b7b760511b6064820152608401610971565b601d55565b6000546001600160a01b031633146116d85760405162461bcd60e51b815260040161097190613111565b6001600160a01b03166000818152600560205260409020805460ff19166001179055601780546001600160a01b0319169091179055565b6000546001600160a01b031633146117395760405162461bcd60e51b815260040161097190613111565b6001600160a01b03166000908152600660205260409020805460ff19169055565b6060600d80546108ad906130d6565b6000546001600160a01b031633146117935760405162461bcd60e51b815260040161097190613111565b6016546001600160a01b03838116911614156118175760405162461bcd60e51b815260206004820152603e60248201527f4c50593a2054686520706169722063616e6e6f742062652072656d6f7665642060448201527f66726f6d206175746f6d617465644d61726b65744d616b6572506169727300006064820152608401610971565b6111a28282611fcd565b600061093d3384610b31856040518060600160405280602581526020016132f8602591393360009081526004602090815260408083206001600160a01b038d1684529091529020549190611f7e565b600061093d338484611c07565b6000546001600160a01b031633146118a75760405162461bcd60e51b815260040161097190613111565b601f55565b6000546001600160a01b031633146118d65760405162461bcd60e51b815260040161097190613111565b60168054821515600160a81b0260ff60a81b199091161790556040517f53726dfcaf90650aa7eb35524f4d3220f07413c8d6cb404cc8c18bf5591bc1599061192390831515815260200190565b60405180910390a150565b6000546001600160a01b031633146119585760405162461bcd60e51b815260040161097190613111565b6001600160a01b0382166119ae5760405162461bcd60e51b815260206004820152601b60248201527f556e61626c6520746f206c6f636b205a65726f204164647265737300000000006044820152606401610971565b6001600160a01b03919091166000908152600160205260409020805460ff1916911515919091179055565b6000546001600160a01b03163314611a035760405162461bcd60e51b815260040161097190613111565b6001600160a01b03166000908152600560205260409020805460ff19169055565b6000546001600160a01b03163314611a4e5760405162461bcd60e51b815260040161097190613111565b6001600160a01b038116611ab35760405162461bcd60e51b815260206004820152602660248201527f4f776e61626c653a206e6577206f776e657220697320746865207a65726f206160448201526564647265737360d01b6064820152608401610971565b611abc8161214d565b50565b6000610bbd828461318f565b6000610bbd82846131d7565b6001600160a01b038316611b395760405162461bcd60e51b8152602060048201526024808201527f45524332303a20617070726f76652066726f6d20746865207a65726f206164646044820152637265737360e01b6064820152608401610971565b6001600160a01b038216611b9a5760405162461bcd60e51b815260206004820152602260248201527f45524332303a20617070726f766520746f20746865207a65726f206164647265604482015261737360f01b6064820152608401610971565b6001600160a01b0383811660008181526004602090815260408083209487168084529482529182902085905590518481527f8c5be1e5ebec7d5bd14f71427d1e84f3dd0314c0f7b2291e5b200ac8c7c3b925910160405180910390a3505050565b6000610bbd82846131f9565b6001600160a01b038316611c6b5760405162461bcd60e51b815260206004820152602560248201527f45524332303a207472616e736665722066726f6d20746865207a65726f206164604482015264647265737360d81b6064820152608401610971565b6001600160a01b038216611ccd5760405162461bcd60e51b815260206004820152602360248201527f45524332303a207472616e7366657220746f20746865207a65726f206164647260448201526265737360e81b6064820152608401610971565b6001600160a01b03831660009081526001602052604090205460ff1615611d415760405162461bcd60e51b815260206004820152602260248201527f45524332303a2046726f6d206163636f756e7420697320626c61636b6c697374604482015261195960f21b6064820152608401610971565b6001600160a01b03821660009081526001602052604090205460ff1615611daa5760405162461bcd60e51b815260206004820181905260248201527f45524332303a20546f206163636f756e7420697320626c61636b6c69737465646044820152606401610971565b60008111611e0c5760405162461bcd60e51b815260206004820152602960248201527f5472616e7366657220616d6f756e74206d7573742062652067726561746572206044820152687468616e207a65726f60b81b6064820152608401610971565b6000546001600160a01b03848116911614801590611e3857506000546001600160a01b03838116911614155b80611e5c57506001600160a01b03831660009081526006602052604090205460ff16155b15611e6b57611e6b838261219d565b6000611e7630611579565b601f5490915081108015908190611e975750601654600160a01b900460ff16155b8015611eb157506016546001600160a01b03868116911614155b8015611ec65750601654600160a81b900460ff165b15611ed957601f549150611ed982612345565b6001600160a01b03851660009081526005602052604090205460019060ff1680611f1b57506001600160a01b03851660009081526005602052604090205460ff165b80611f6157506001600160a01b038616600090815260208052604090205460ff16158015611f6157506001600160a01b038516600090815260208052604090205460ff16155b15611f6a575060005b611f76868686846123ec565b505050505050565b60008184841115611fa25760405162461bcd60e51b81526004016109719190612edc565b505050900390565b6000806000611fb761256f565b9092509050611fc68282611acb565b9250505090565b6001600160a01b038216600090815260208052604090205460ff16151581151514156120615760405162461bcd60e51b815260206004820152603d60248201527f4c50593a204175746f6d61746564206d61726b6574206d616b6572207061697260448201527f20697320616c72656164792073657420746f20746861742076616c75650000006064820152608401610971565b6001600160a01b03821660009081526020805260409020805460ff191682158015919091179091556120a45761209682611426565b61209f82610947565b6120b6565b6120ad82610fef565b6120b68261170f565b604051811515906001600160a01b038416907fffa9187bf1f18bf477bd0ea1bcbb64e93b6a98132473929edfce215cd9b16fab90600090a35050565b600080600080600080600080600080600061210c8c6126f1565b9350935093509350600080600061212d8f878787612128611faa565b612746565b919f509d509b509599509397509195509350505050919395979092949650565b600080546001600160a01b038381166001600160a01b0319831681178455604051919092169283917f8be0079c531659141344cd1fd0a4f28419497f9722a3daafe3b4186f6b6457e09190a35050565b6001600160a01b0382166000908152601b60205260409020546121d6576001600160a01b0382166000908152601b602052604090204290555b6001600160a01b038216600090815260196020526040902054612216576121fc82611579565b6001600160a01b0383166000908152601960205260409020555b6001600160a01b0382166000908152601b6020526040902054429061223e9062015180611bfb565b116122815761224c82611579565b6001600160a01b038316600090815260196020908152604080832093909355601b8152828220429055601a9052908120555050565b601c54601d546001600160a01b03841660009081526019602052604081205490926122b79290916122b1916127a8565b90611acb565b6001600160a01b0384166000908152601a60205260409020549091506122dd9083611bfb565b6001600160a01b0384166000908152601a602052604090208190558110156123405760405162461bcd60e51b8152602060048201526016602482015275457863656564206461696c7920616c6c6f77616e636560501b6044820152606401610971565b505050565b6016805460ff60a01b1916600160a01b1790556000612365826002611acb565b905060006123738383611abf565b90504761237f836127b4565b600061238b4783611abf565b90506123978382612915565b60408051858152602081018390529081018490527f17bbfb9a6069321b6ded73bd96327c9e6b7212a5cd51ff219cd61370acafb5619060600160405180910390a150506016805460ff60a01b19169055505050565b806123f9576123f96129f9565b6001600160a01b03841660009081526007602052604090205460ff16801561243a57506001600160a01b03831660009081526007602052604090205460ff16155b1561244f5761244a848484612a32565b61254d565b6001600160a01b03841660009081526007602052604090205460ff1615801561249057506001600160a01b03831660009081526007602052604090205460ff165b156124a05761244a848484612b78565b6001600160a01b03841660009081526007602052604090205460ff161580156124e257506001600160a01b03831660009081526007602052604090205460ff16155b156124f25761244a848484612c37565b6001600160a01b03841660009081526007602052604090205460ff16801561253257506001600160a01b03831660009081526007602052604090205460ff165b156125425761244a848484612c91565b61254d848484612c37565b8061256957612569601254601155601054600f55601454601355565b50505050565b600a546009546000918291825b6008548110156126c15782600260006008848154811061259e5761259e613163565b60009182526020808320909101546001600160a01b03168352820192909252604001902054118061260957508160036000600884815481106125e2576125e2613163565b60009182526020808320909101546001600160a01b03168352820192909252604001902054115b1561261f57600a54600954945094505050509091565b612665600260006008848154811061263957612639613163565b60009182526020808320909101546001600160a01b031683528201929092526040019020548490611abf565b92506126ad600360006008848154811061268157612681613163565b60009182526020808320909101546001600160a01b031683528201929092526040019020548390611abf565b9150806126b9816131bc565b91505061257c565b50600954600a546126d191611acb565b8210156126e857600a546009549350935050509091565b90939092509050565b600080600080600061270286612d1a565b9050600061270f87612d37565b9050600061271c88612d54565b905060006127368261273085818d89611abf565b90611abf565b9993985091965094509092505050565b600080808061275589866127a8565b9050600061276389876127a8565b9050600061277189886127a8565b9050600061277f89896127a8565b905060006127938261273085818989611abf565b949d949c50929a509298505050505050505050565b6000610bbd8284613211565b60408051600280825260608201835260009260208301908036833701905050905030816000815181106127e9576127e9613163565b6001600160a01b03928316602091820292909201810191909152601554604080516315ab88c960e31b81529051919093169263ad5c4648926004808301939192829003018186803b15801561283d57600080fd5b505afa158015612851573d6000803e3d6000fd5b505050506040513d601f19601f820116820180604052508101906128759190613146565b8160018151811061288857612888613163565b6001600160a01b0392831660209182029290920101526015546128ae9130911684611ad7565b60155460405163791ac94760e01b81526001600160a01b039091169063791ac947906128e7908590600090869030904290600401613230565b600060405180830381600087803b15801561290157600080fd5b505af1158015611f76573d6000803e3d6000fd5b60155461292d9030906001600160a01b031684611ad7565b6015546001600160a01b031663f305d7198230856000806129566000546001600160a01b031690565b60405160e088901b6001600160e01b03191681526001600160a01b03958616600482015260248101949094526044840192909252606483015290911660848201524260a482015260c4016060604051808303818588803b1580156129b957600080fd5b505af11580156129cd573d6000803e3d6000fd5b50505050506040513d601f19601f820116820180604052508101906129f291906132a1565b5050505050565b601154158015612a095750600f54155b15612a1057565b60118054601255600f8054601055601380546014556000928390559082905555565b6000806000806000806000612a46886120f2565b9650965096509650965096509650612a8c88600360008d6001600160a01b03166001600160a01b0316815260200190815260200160002054611abf90919063ffffffff16565b6001600160a01b038b16600090815260036020908152604080832093909355600290522054612abb9088611abf565b6001600160a01b03808c1660009081526002602052604080822093909355908b1681522054612aea9087611bfb565b6001600160a01b038a16600090815260026020526040902055612b0c82612d71565b612b1581612df9565b612b1f8584612eb8565b886001600160a01b03168a6001600160a01b03167fddf252ad1be2c89b69c2b068fc378daa952ba7f163c4a11628f55a4df523b3ef86604051612b6491815260200190565b60405180910390a350505050505050505050565b6000806000806000806000612b8c886120f2565b9650965096509650965096509650612bd287600260008d6001600160a01b03166001600160a01b0316815260200190815260200160002054611abf90919063ffffffff16565b6001600160a01b03808c16600090815260026020908152604080832094909455918c16815260039091522054612c089085611bfb565b6001600160a01b038a16600090815260036020908152604080832093909355600290522054612aea9087611bfb565b6000806000806000806000612c4b886120f2565b9650965096509650965096509650612abb87600260008d6001600160a01b03166001600160a01b0316815260200190815260200160002054611abf90919063ffffffff16565b6000806000806000806000612ca5886120f2565b9650965096509650965096509650612ceb88600360008d6001600160a01b03166001600160a01b0316815260200190815260200160002054611abf90919063ffffffff16565b6001600160a01b038b16600090815260036020908152604080832093909355600290522054612bd29088611abf565b6000610941601c546122b1601154856127a890919063ffffffff16565b6000610941601c546122b1600f54856127a890919063ffffffff16565b6000610941601c546122b1601354856127a890919063ffffffff16565b6000612d7b611faa565b90506000612d8983836127a8565b30600090815260026020526040902054909150612da69082611bfb565b3060009081526002602090815260408083209390935560079052205460ff16156123405730600090815260036020526040902054612de49084611bfb565b30600090815260036020526040902055505050565b6000612e03611faa565b90506000612e1183836127a8565b6017546001600160a01b0316600090815260026020526040902054909150612e399082611bfb565b601780546001600160a01b03908116600090815260026020908152604080832095909555925490911681526007909152205460ff1615612340576017546001600160a01b0316600090815260036020526040902054612e989084611bfb565b6017546001600160a01b0316600090815260036020526040902055505050565b600a54612ec59083611abf565b600a55600b54612ed59082611bfb565b600b555050565b600060208083528351808285015260005b81811015612f0957858101830151858201604001528201612eed565b81811115612f1b576000604083870101525b50601f01601f1916929092016040019392505050565b6001600160a01b0381168114611abc57600080fd5b60008060408385031215612f5957600080fd5b8235612f6481612f31565b946020939093013593505050565b600060208284031215612f8457600080fd5b8135610bbd81612f31565b600080600060608486031215612fa457600080fd5b505081359360208301359350604090920135919050565b600080600060608486031215612fd057600080fd5b8335612fdb81612f31565b92506020840135612feb81612f31565b929592945050506040919091013590565b60006020828403121561300e57600080fd5b5035919050565b8035801515811461302557600080fd5b919050565b6000806040838503121561303d57600080fd5b8235915061304d60208401613015565b90509250929050565b6000806040838503121561306957600080fd5b823561307481612f31565b915061304d60208401613015565b60006020828403121561309457600080fd5b610bbd82613015565b600080604083850312156130b057600080fd5b82356130bb81612f31565b915060208301356130cb81612f31565b809150509250929050565b600181811c908216806130ea57607f821691505b6020821081141561310b57634e487b7160e01b600052602260045260246000fd5b50919050565b6020808252818101527f4f776e61626c653a2063616c6c6572206973206e6f7420746865206f776e6572604082015260600190565b60006020828403121561315857600080fd5b8151610bbd81612f31565b634e487b7160e01b600052603260045260246000fd5b634e487b7160e01b600052601160045260246000fd5b6000828210156131a1576131a1613179565b500390565b634e487b7160e01b600052603160045260246000fd5b60006000198214156131d0576131d0613179565b5060010190565b6000826131f457634e487b7160e01b600052601260045260246000fd5b500490565b6000821982111561320c5761320c613179565b500190565b600081600019048311821515161561322b5761322b613179565b500290565b600060a082018783526020878185015260a0604085015281875180845260c086019150828901935060005b818110156132805784516001600160a01b03168352938301939183019160010161325b565b50506001600160a01b03969096166060850152505050608001529392505050565b6000806000606084860312156132b657600080fd5b835192506020840151915060408401519050925092509256fe45524332303a207472616e7366657220616d6f756e74206578636565647320616c6c6f77616e636545524332303a2064656372656173656420616c6c6f77616e63652062656c6f77207a65726fa26469706673582212204505fbd02f0c306ab84965059e80613f936c2b987fbdf45fb2237826e197e73064736f6c634300080900334f776e61626c653a2063616c6c6572206973206e6f7420746865206f776e6572",
  "immutableReferences": {},
  "source": "// SPDX-License-Identifier: Unlicensed\npragma solidity ^0.8.9;\n\nimport \"@openzeppelin/contracts/access/Ownable.sol\";\nimport \"@openzeppelin/contracts/utils/Context.sol\";\nimport \"@openzeppelin/contracts/interfaces/IERC20.sol\";\nimport \"@openzeppelin/contracts/utils/Address.sol\";\nimport \"@openzeppelin/contracts/utils/math/SafeMath.sol\";\n\n\ninterface IPancakeFactory {\n    event PairCreated(address indexed token0, address indexed token1, address pair, uint);\n\n    function feeTo() external view returns (address);\n    function feeToSetter() external view returns (address);\n\n    function getPair(address tokenA, address tokenB) external view returns (address pair);\n    function allPairs(uint) external view returns (address pair);\n    function allPairsLength() external view returns (uint);\n\n    function createPair(address tokenA, address tokenB) external returns (address pair);\n\n    function setFeeTo(address) external;\n    function setFeeToSetter(address) external;\n\n    function INIT_CODE_PAIR_HASH() external view returns (bytes32);\n}\n\ninterface IPancakeRouter01 {\n    function factory() external pure returns (address);\n    function WETH() external pure returns (address);\n\n    function addLiquidity(\n        address tokenA,\n        address tokenB,\n        uint amountADesired,\n        uint amountBDesired,\n        uint amountAMin,\n        uint amountBMin,\n        address to,\n        uint deadline\n    ) external returns (uint amountA, uint amountB, uint liquidity);\n    function addLiquidityETH(\n        address token,\n        uint amountTokenDesired,\n        uint amountTokenMin,\n        uint amountETHMin,\n        address to,\n        uint deadline\n    ) external payable returns (uint amountToken, uint amountETH, uint liquidity);\n    function removeLiquidity(\n        address tokenA,\n        address tokenB,\n        uint liquidity,\n        uint amountAMin,\n        uint amountBMin,\n        address to,\n        uint deadline\n    ) external returns (uint amountA, uint amountB);\n    function removeLiquidityETH(\n        address token,\n        uint liquidity,\n        uint amountTokenMin,\n        uint amountETHMin,\n        address to,\n        uint deadline\n    ) external returns (uint amountToken, uint amountETH);\n    function removeLiquidityWithPermit(\n        address tokenA,\n        address tokenB,\n        uint liquidity,\n        uint amountAMin,\n        uint amountBMin,\n        address to,\n        uint deadline,\n        bool approveMax, uint8 v, bytes32 r, bytes32 s\n    ) external returns (uint amountA, uint amountB);\n    function removeLiquidityETHWithPermit(\n        address token,\n        uint liquidity,\n        uint amountTokenMin,\n        uint amountETHMin,\n        address to,\n        uint deadline,\n        bool approveMax, uint8 v, bytes32 r, bytes32 s\n    ) external returns (uint amountToken, uint amountETH);\n    function swapExactTokensForTokens(\n        uint amountIn,\n        uint amountOutMin,\n        address[] calldata path,\n        address to,\n        uint deadline\n    ) external returns (uint[] memory amounts);\n    function swapTokensForExactTokens(\n        uint amountOut,\n        uint amountInMax,\n        address[] calldata path,\n        address to,\n        uint deadline\n    ) external returns (uint[] memory amounts);\n    function swapExactETHForTokens(uint amountOutMin, address[] calldata path, address to, uint deadline)\n        external\n        payable\n        returns (uint[] memory amounts);\n    function swapTokensForExactETH(uint amountOut, uint amountInMax, address[] calldata path, address to, uint deadline)\n        external\n        returns (uint[] memory amounts);\n    function swapExactTokensForETH(uint amountIn, uint amountOutMin, address[] calldata path, address to, uint deadline)\n        external\n        returns (uint[] memory amounts);\n    function swapETHForExactTokens(uint amountOut, address[] calldata path, address to, uint deadline)\n        external\n        payable\n        returns (uint[] memory amounts);\n\n    function quote(uint amountA, uint reserveA, uint reserveB) external pure returns (uint amountB);\n    function getAmountOut(uint amountIn, uint reserveIn, uint reserveOut) external pure returns (uint amountOut);\n    function getAmountIn(uint amountOut, uint reserveIn, uint reserveOut) external pure returns (uint amountIn);\n    function getAmountsOut(uint amountIn, address[] calldata path) external view returns (uint[] memory amounts);\n    function getAmountsIn(uint amountOut, address[] calldata path) external view returns (uint[] memory amounts);\n}\n\ninterface IPancakeRouter02 is IPancakeRouter01 {\n    function removeLiquidityETHSupportingFeeOnTransferTokens(\n        address token,\n        uint liquidity,\n        uint amountTokenMin,\n        uint amountETHMin,\n        address to,\n        uint deadline\n    ) external returns (uint amountETH);\n    function removeLiquidityETHWithPermitSupportingFeeOnTransferTokens(\n        address token,\n        uint liquidity,\n        uint amountTokenMin,\n        uint amountETHMin,\n        address to,\n        uint deadline,\n        bool approveMax, uint8 v, bytes32 r, bytes32 s\n    ) external returns (uint amountETH);\n\n    function swapExactTokensForTokensSupportingFeeOnTransferTokens(\n        uint amountIn,\n        uint amountOutMin,\n        address[] calldata path,\n        address to,\n        uint deadline\n    ) external;\n    function swapExactETHForTokensSupportingFeeOnTransferTokens(\n        uint amountOutMin,\n        address[] calldata path,\n        address to,\n        uint deadline\n    ) external payable;\n    function swapExactTokensForETHSupportingFeeOnTransferTokens(\n        uint amountIn,\n        uint amountOutMin,\n        address[] calldata path,\n        address to,\n        uint deadline\n    ) external;\n}\n\n/**\n  Features:\n  3% fee auto add to the liquidity pool\n  2% fee auto distribute to all holders\n  1% fee to marketing\n*/\ncontract LPY is Context, IERC20, Ownable {\n    using SafeMath for uint256;\n    using Address for address;\n\n    mapping (address => bool) public _blacklist;\n\n    mapping (address => uint256) private _rOwned;\n    mapping (address => uint256) private _tOwned;\n    mapping (address => mapping (address => uint256)) private _allowances;\n\n    mapping (address => bool) private _isExcludedFromFee;\n    mapping (address => bool) private _isExcludedFromLimit;\n\n    mapping (address => bool) private _isExcluded;\n    address[] private _excluded;\n   \n    uint256 private constant MAX = ~uint256(0);\n    uint256 private _tTotal = 10000000000 * 1e18;\n    uint256 private _rTotal = (MAX - (MAX % _tTotal));\n    uint256 private _tFeeTotal;\n\n    string private _name = \"LeisurePay Token V2\";\n    string private _symbol = \"LPY\";\n    uint8 private _decimals = 18;\n\n    uint256 public _liquidityFee = 300;\n    uint256 private _previousLiquidityFee = _liquidityFee;\n    \n    uint256 public _taxFee = 200;\n    uint256 private _previousTaxFee = _taxFee;\n    \n    uint256 public _marketingFee = 100;\n    uint256 private _previousMarketingFee = _marketingFee;\n\n    IPancakeRouter02 public pancakeRouter02;\n    address public pancakePair02;\n    \n    bool inSwapAndLiquify;\n    bool public swapAndLiquifyEnabled = true;\n\n    address public _marketing;\n    \n    uint256 private feeLockDays = 180 days; // 6 months\n\n    mapping(address=>uint256) private startBalance; // balance @ start of the day\n    mapping(address=>uint256) private spent; // token spent  in a day\n    mapping(address=>uint256) private lastReset; // % time of last clear\n    uint256 private _precision = 10000; // Precision\n    uint256 public _maxTxAmount = 3000; // 30%/day\n    uint256 lastFeeChange = block.timestamp.sub(feeLockDays); // 6 months ago\n    uint256 private numTokensSellToAddToLiquidity = 500000 * 1e18;\n    // store addresses that a automatic market maker pairs. Any transfer *to* and *from* these addresses\n    // should be charged\n    mapping(address => bool) public automatedMarketMakerPairs;\n    \n    event SetAutomatedMarketMakerPair(address indexed pair, bool indexed value);\n    event MinTokensBeforeSwapUpdated(uint256 minTokensBeforeSwap);\n    event SwapAndLiquifyEnabledUpdated(bool enabled);\n    event SwapAndLiquify(\n        uint256 tokensSwapped,\n        uint256 ethReceived,\n        uint256 tokensIntoLiqudity\n    );\n    \n    modifier lockTheSwap {\n        inSwapAndLiquify = true;\n        _;\n        inSwapAndLiquify = false;\n    }\n\n    function antiDump(address _who, uint256 _amount) private {\n        if(lastReset[_who] == 0) {\n            lastReset[_who] = block.timestamp;\n        }\n        if(startBalance[_who] == 0){\n            startBalance[_who] = balanceOf(_who);\n        }\n        if(lastReset[_who].add(24 hours) <= block.timestamp){\n            startBalance[_who] = balanceOf(_who);\n            lastReset[_who] = block.timestamp;\n            spent[_who] = 0;\n        }else{\n            uint256 percent = startBalance[_who].mul(_maxTxAmount).div(_precision);\n            spent[_who] = spent[_who].add(_amount);\n            require(spent[_who] <= percent, \"Exceed daily allowance\");\n        }\n    }\n    \n    constructor() {\n        _rOwned[_msgSender()] = _rTotal;\n        \n        // IPancakeRouter02 _pancakeRouter02 = IPancakeRouter02(0xD99D1c33F9fC3444f8101754aBC46c52416550D1); //TESTNET\n        IPancakeRouter02 _pancakeRouter02 = IPancakeRouter02(0x10ED43C718714eb63d5aA57B78B54704E256024E); // MAINNET\n        // Create a uniswap pair for this new token\n        address _pancakePair02 = IPancakeFactory(_pancakeRouter02.factory()).createPair(address(this), _pancakeRouter02.WETH());\n\n        _marketing = owner();\n\n\n        // // set the rest of the contract variables\n        pancakePair02 = _pancakePair02;\n        pancakeRouter02 = _pancakeRouter02;\n\n        _setAutomatedMarketMakerPair(_pancakePair02, true);\n\n        //exclude owner and this contract from fee\n        _isExcludedFromFee[owner()] = true;\n        _isExcludedFromFee[address(this)] = true;\n\n        _isExcludedFromLimit[owner()] = true;\n        _isExcludedFromLimit[address(this)] = true;\n        _isExcludedFromLimit[_pancakePair02] = true;\n        \n        emit Transfer(address(0), _msgSender(), _tTotal);\n    }\n\n    function name() public view returns (string memory) {\n        return _name;\n    }\n\n    function symbol() public view returns (string memory) {\n        return _symbol;\n    }\n\n    function decimals() public view returns (uint8) {\n        return _decimals;\n    }\n\n    function totalSupply() public view override returns (uint256) {\n        return _tTotal;\n    }\n\n    function updateSwapAmount(uint256 _new) external onlyOwner {\n        numTokensSellToAddToLiquidity = _new;\n    }\n\n    function setBlacklisted(address _blacklistAddress, bool _isBlacklisted) external onlyOwner {\n        require (_blacklistAddress != address(0), \"Unable to lock Zero Address\");\n        _blacklist[_blacklistAddress] = _isBlacklisted;\n    }\n\n    /**\n    * @dev Function to change the max transaction percentage, percentage is in precision of 10000\n    * @param _newMax The new max transaction percentage\n    */\n    function updateMaxPerc(uint256 _newMax) external onlyOwner {\n        require(_newMax <= _precision, \"Max transaction percentage must be less than precision\");\n        _maxTxAmount = _newMax;\n    }\n\n    function changeMarketing(address _new) external onlyOwner {\n        _isExcludedFromFee[_new] = true;\n        _marketing = _new;\n    }\n\n    \n    function changeRouter(address _new) external onlyOwner {\n        require(address(pancakeRouter02) != _new, \"Cannot change router to the same router\");\n\n        pancakeRouter02 = IPancakeRouter02(_new);\n         \n        address _swapPair = IPancakeFactory(pancakeRouter02.factory()).getPair(address(this), pancakeRouter02.WETH());\n        \n        // check if pair already exists if not, create new pair\n        if(_swapPair == address(0)){\n            // Create a pair for this new token\n            _swapPair = IPancakeFactory(pancakeRouter02.factory()).createPair(address(this), pancakeRouter02.WETH());\n        }\n\n        // set the rest of the contract variables\n        _setAutomatedMarketMakerPair(_swapPair, true);\n        _isExcludedFromLimit[_swapPair] = true;\n\n        pancakePair02 = _swapPair;\n    }\n\n    function balanceOf(address account) public view override returns (uint256) {\n        if (_isExcluded[account]) return _tOwned[account];\n        return tokenFromReflection(_rOwned[account]);\n    }\n\n    function transfer(address recipient, uint256 amount) public override returns (bool) {\n        _transfer(_msgSender(), recipient, amount);\n        return true;\n    }\n\n    function allowance(address owner, address spender) public view override returns (uint256) {\n        return _allowances[owner][spender];\n    }\n\n    function approve(address spender, uint256 amount) public override returns (bool) {\n        _approve(_msgSender(), spender, amount);\n        return true;\n    }\n\n    function transferFrom(address sender, address recipient, uint256 amount) public override returns (bool) {\n        _transfer(sender, recipient, amount);\n        _approve(sender, _msgSender(), _allowances[sender][_msgSender()].sub(amount, \"ERC20: transfer amount exceeds allowance\"));\n        return true;\n    }\n\n    function increaseAllowance(address spender, uint256 addedValue) public virtual returns (bool) {\n        _approve(_msgSender(), spender, _allowances[_msgSender()][spender].add(addedValue));\n        return true;\n    }\n\n    function decreaseAllowance(address spender, uint256 subtractedValue) public virtual returns (bool) {\n        _approve(_msgSender(), spender, _allowances[_msgSender()][spender].sub(subtractedValue, \"ERC20: decreased allowance below zero\"));\n        return true;\n    }\n\n    function isExcludedFromReward(address account) public view returns (bool) {\n        return _isExcluded[account];\n    }\n\n    function totalFees() public view returns (uint256) {\n        return _tFeeTotal;\n    }\n\n    function deliver(uint256 tAmount) public {\n        address sender = _msgSender();\n        require(!_isExcluded[sender], \"Excluded addresses cannot call this function\");\n        require(!_blacklist[sender], \"Blacklisted addresses cannot call this function\");\n        (uint256 rAmount,,,,,,) = _getValues(tAmount);\n        _rOwned[sender] = _rOwned[sender].sub(rAmount);\n        _rTotal = _rTotal.sub(rAmount);\n        _tFeeTotal = _tFeeTotal.add(tAmount);\n    }\n\n    function reflectionFromToken(uint256 tAmount, bool deductTransferFee) public view returns(uint256) {\n        require(tAmount <= _tTotal, \"Amount must be less than supply\");\n        if (!deductTransferFee) {\n            (uint256 rAmount,,,,,,) = _getValues(tAmount);\n            return rAmount;\n        } else {\n            (,uint256 rTransferAmount,,,,,) = _getValues(tAmount);\n            return rTransferAmount;\n        }\n    }\n\n    function tokenFromReflection(uint256 rAmount) public view returns(uint256) {\n        require(rAmount <= _rTotal, \"Amount must be less than total reflections\");\n        uint256 currentRate =  _getRate();\n        return rAmount.div(currentRate);\n    }\n\n    // allow adding additional AMM pairs to the list\n    function setAutomatedMarketMakerPair(address pair, bool value)\n        external\n        onlyOwner\n    {\n        require(\n            pair != pancakePair02,\n            \"LPY: The pair cannot be removed from automatedMarketMakerPairs\"\n        );\n\n        _setAutomatedMarketMakerPair(pair, value);\n    }\n\n    function excludeFromReward(address account) public onlyOwner() {\n        require(!_isExcluded[account], \"Account is already excluded\");\n        if(_rOwned[account] > 0) {\n            _tOwned[account] = tokenFromReflection(_rOwned[account]);\n        }\n        _isExcluded[account] = true;\n        _excluded.push(account);\n    }\n\n    function includeInReward(address account) public onlyOwner() {\n        require(_isExcluded[account], \"Account is already included\");\n        for (uint256 i = 0; i < _excluded.length; i++) {\n            if (_excluded[i] == account) {\n                _excluded[i] = _excluded[_excluded.length - 1];\n                _tOwned[account] = 0;\n                _isExcluded[account] = false;\n                _excluded.pop();\n                break;\n            }\n        }\n    }\n\n    function _setAutomatedMarketMakerPair(address pair, bool value) private {\n        require(\n            automatedMarketMakerPairs[pair] != value,\n            \"LPY: Automated market maker pair is already set to that value\"\n        );\n        automatedMarketMakerPairs[pair] = value;\n\n        if (value) {\n            excludeFromReward(pair);\n            excludeFromLimit(pair);\n        }else{\n            includeInReward(pair);\n            includeInLimit(pair);\n        }\n        emit SetAutomatedMarketMakerPair(pair, value);\n    }\n\n    function _transferBothExcluded(address sender, address recipient, uint256 tAmount) private {\n        (uint256 rAmount, uint256 rTransferAmount, uint256 rFee, uint256 tTransferAmount, uint256 tFee, uint256 tLiquidity, uint256 tMarketing) = _getValues(tAmount);\n        _tOwned[sender] = _tOwned[sender].sub(tAmount);\n        _rOwned[sender] = _rOwned[sender].sub(rAmount);\n        _tOwned[recipient] = _tOwned[recipient].add(tTransferAmount);\n        _rOwned[recipient] = _rOwned[recipient].add(rTransferAmount);        \n        _takeLiquidity(tLiquidity);\n        _takeMarketing(tMarketing);\n        _reflectFee(rFee, tFee);\n        emit Transfer(sender, recipient, tTransferAmount);\n    }\n    \n    function excludeFromLimit(address account) public onlyOwner {\n        _isExcludedFromLimit[account] = true;\n    }\n    \n    function includeInLimit(address account) public onlyOwner {\n        _isExcludedFromLimit[account] = false;\n    }\n    \n    function excludeFromFee(address account) public onlyOwner {\n        _isExcludedFromFee[account] = true;\n    }\n    \n    function includeInFee(address account) public onlyOwner {\n        _isExcludedFromFee[account] = false;\n    }\n\n    function updateFees(uint256 liquidityPerc, uint256 marketingPerc, uint256 taxPerc) external onlyOwner {\n        require(liquidityPerc.add(marketingPerc).add(taxPerc) <= 600, \"Fees must not be greater than 6%\");\n\n        if(liquidityPerc >= _liquidityFee || marketingPerc >= _marketingFee || taxPerc >= _taxFee){\n            require(lastFeeChange.add(feeLockDays) <= block.timestamp, \"Tax change interval has not reached\");\n            lastFeeChange = block.timestamp;\n        }\n        _liquidityFee = liquidityPerc;\n        _marketingFee = marketingPerc;\n        _taxFee = taxPerc;\n    }\n\n    function setSwapAndLiquifyEnabled(bool _enabled) public onlyOwner {\n        swapAndLiquifyEnabled = _enabled;\n        emit SwapAndLiquifyEnabledUpdated(_enabled);\n    }\n    \n    //to recieve ETH from pancakeRouter02 when swaping\n    receive() external payable {}\n\n    function _reflectFee(uint256 rFee, uint256 tFee) private {\n        _rTotal = _rTotal.sub(rFee);\n        _tFeeTotal = _tFeeTotal.add(tFee);\n    }\n\n    function _getValues(uint256 tAmount) private view returns (uint256, uint256, uint256, uint256, uint256, uint256, uint256) {\n        (uint256 tTransferAmount, uint256 tFee, uint256 tLiquidity, uint256 tMarketing) = _getTValues(tAmount);\n        (uint256 rAmount, uint256 rTransferAmount, uint256 rFee) = _getRValues(tAmount, tFee, tLiquidity, tMarketing, _getRate());\n        return (rAmount, rTransferAmount, rFee, tTransferAmount, tFee, tLiquidity, tMarketing);\n    }\n\n    function _getTValues(uint256 tAmount) private view returns (uint256, uint256, uint256, uint256) {\n        uint256 tFee = calculateTaxFee(tAmount);\n        uint256 tLiquidity = calculateLiquidityFee(tAmount);\n        uint256 tMarketing = calculateMarketingFee(tAmount);\n        uint256 tTransferAmount = tAmount.sub(tFee).sub(tLiquidity).sub(tMarketing);\n        return (tTransferAmount, tFee, tLiquidity, tMarketing);\n    }\n\n    function _getRValues(uint256 tAmount, uint256 tFee, uint256 tLiquidity, uint256 tMarketing, uint256 currentRate) private pure returns (uint256, uint256, uint256) {\n        uint256 rAmount = tAmount.mul(currentRate);\n        uint256 rFee = tFee.mul(currentRate);\n        uint256 rLiquidity = tLiquidity.mul(currentRate);\n        uint256 rMarketing = tMarketing.mul(currentRate);\n        uint256 rTransferAmount = rAmount.sub(rFee).sub(rLiquidity).sub(rMarketing);\n        return (rAmount, rTransferAmount, rFee);\n    }\n\n    function _getRate() private view returns(uint256) {\n        (uint256 rSupply, uint256 tSupply) = _getCurrentSupply();\n        return rSupply.div(tSupply);\n    }\n\n    function _getCurrentSupply() private view returns(uint256, uint256) {\n        uint256 rSupply = _rTotal;\n        uint256 tSupply = _tTotal;      \n        for (uint256 i = 0; i < _excluded.length; i++) {\n            if (_rOwned[_excluded[i]] > rSupply || _tOwned[_excluded[i]] > tSupply) return (_rTotal, _tTotal);\n            rSupply = rSupply.sub(_rOwned[_excluded[i]]);\n            tSupply = tSupply.sub(_tOwned[_excluded[i]]);\n        }\n        if (rSupply < _rTotal.div(_tTotal)) return (_rTotal, _tTotal);\n        return (rSupply, tSupply);\n    }\n    \n    function _takeLiquidity(uint256 tLiquidity) private {\n        uint256 currentRate =  _getRate();\n        uint256 rLiquidity = tLiquidity.mul(currentRate);\n        _rOwned[address(this)] = _rOwned[address(this)].add(rLiquidity);\n        if(_isExcluded[address(this)])\n            _tOwned[address(this)] = _tOwned[address(this)].add(tLiquidity);\n    }\n    \n    \n    function _takeMarketing(uint256 tMarketing) private {\n        uint256 currentRate =  _getRate();\n        uint256 rMarketing = tMarketing.mul(currentRate);\n        _rOwned[_marketing] = _rOwned[_marketing].add(rMarketing);\n        if(_isExcluded[_marketing])\n            _tOwned[_marketing] = _tOwned[_marketing].add(tMarketing);\n    }\n    \n    function calculateTaxFee(uint256 _amount) private view returns (uint256) {\n        return _amount.mul(_taxFee).div(_precision);\n    }\n\n    function calculateLiquidityFee(uint256 _amount) private view returns (uint256) {\n        return _amount.mul(_liquidityFee).div(_precision);\n    }\n\n    function calculateMarketingFee(uint256 _amount) private view returns (uint256) {\n        return _amount.mul(_marketingFee).div(_precision);\n    }\n    \n    function removeAllFee() private {\n        if(_taxFee == 0 && _liquidityFee == 0) return;\n        \n        _previousTaxFee = _taxFee;\n        _previousLiquidityFee = _liquidityFee;\n        _previousMarketingFee = _marketingFee;\n        \n        _taxFee = 0;\n        _liquidityFee = 0;\n        _marketingFee = 0;\n    }\n    \n    function restoreAllFee() private {\n        _taxFee = _previousTaxFee;\n        _liquidityFee = _previousLiquidityFee;\n        _marketingFee = _previousMarketingFee;\n    }\n    \n    function isExcludedFromFee(address account) public view returns(bool) {\n        return _isExcludedFromFee[account];\n    }\n    \n    function isExcludedFromLimit(address account) public view returns(bool) {\n        return _isExcludedFromLimit[account];\n    }\n\n    function _approve(address owner, address spender, uint256 amount) private {\n        require(owner != address(0), \"ERC20: approve from the zero address\");\n        require(spender != address(0), \"ERC20: approve to the zero address\");\n\n        _allowances[owner][spender] = amount;\n        emit Approval(owner, spender, amount);\n    }\n\n    function _transfer(\n        address from,\n        address to,\n        uint256 amount\n    ) private {\n        require(from != address(0), \"ERC20: transfer from the zero address\");\n        require(to != address(0), \"ERC20: transfer to the zero address\");\n        require(!_blacklist[from], \"ERC20: From account is blacklisted\");\n        require(!_blacklist[to], \"ERC20: To account is blacklisted\");\n        require(amount > 0, \"Transfer amount must be greater than zero\");\n        if((from != owner() && to != owner()) || !_isExcludedFromLimit[from]){\n            antiDump(from, amount);\n        }\n        \n        // is the token balance of this contract address over the min number of\n        // tokens that we need to initiate a swap + liquidity lock?\n        // also, don't get caught in a circular liquidity event.\n        // also, don't swap & liquify if sender is uniswap pair.\n        uint256 contractTokenBalance = balanceOf(address(this));\n        \n        bool overMinTokenBalance = contractTokenBalance >= numTokensSellToAddToLiquidity;\n        if (\n            overMinTokenBalance &&\n            !inSwapAndLiquify &&\n            from != pancakePair02 &&\n            swapAndLiquifyEnabled\n        ) {\n            contractTokenBalance = numTokensSellToAddToLiquidity;\n            //add liquidity\n            swapAndLiquify(contractTokenBalance);\n        }\n        \n        //indicates if fee should be deducted from transfer\n        bool takeFee = true;\n        \n        //if any account belongs to _isExcludedFromFee account then remove the fee\n        if(_isExcludedFromFee[from] || _isExcludedFromFee[to] || (!automatedMarketMakerPairs[from] && !automatedMarketMakerPairs[to])) {\n            takeFee = false;\n        }\n        \n        //transfer amount, it will take tax, burn, liquidity fee\n        _tokenTransfer(from,to,amount,takeFee);\n    }\n\n    function swapAndLiquify(uint256 contractTokenBalance) private lockTheSwap {\n        // split the contract balance into halves\n        uint256 half = contractTokenBalance.div(2);\n        uint256 otherHalf = contractTokenBalance.sub(half);\n\n        // capture the contract's current ETH balance.\n        // this is so that we can capture exactly the amount of ETH that the\n        // swap creates, and not make the liquidity event include any ETH that\n        // has been manually sent to the contract\n        uint256 initialBalance = address(this).balance;\n\n        // swap tokens for ETH\n        swapTokensForEth(half); // <- this breaks the ETH -> HATE swap when swap+liquify is triggered\n\n        // how much ETH did we just swap into?\n        uint256 newBalance = address(this).balance.sub(initialBalance);\n\n        // add liquidity to uniswap\n        addLiquidity(otherHalf, newBalance);\n        \n        emit SwapAndLiquify(half, newBalance, otherHalf);\n    }\n\n    function swapTokensForEth(uint256 tokenAmount) private {\n        // generate the uniswap pair path of token -> weth\n        address[] memory path = new address[](2);\n        path[0] = address(this);\n        path[1] = pancakeRouter02.WETH();\n\n        _approve(address(this), address(pancakeRouter02), tokenAmount);\n\n        // make the swap\n        pancakeRouter02.swapExactTokensForETHSupportingFeeOnTransferTokens(\n            tokenAmount,\n            0, // accept any amount of ETH\n            path,\n            address(this),\n            block.timestamp\n        );\n    }\n\n    function addLiquidity(uint256 tokenAmount, uint256 ethAmount) private {\n        // approve token transfer to cover all possible scenarios\n        _approve(address(this), address(pancakeRouter02), tokenAmount);\n\n        // add the liquidity\n        pancakeRouter02.addLiquidityETH{value: ethAmount}(\n            address(this),\n            tokenAmount,\n            0, // slippage is unavoidable\n            0, // slippage is unavoidable\n            owner(),\n            block.timestamp\n        );\n    }\n\n    //this method is responsible for taking all fee, if takeFee is true\n    function _tokenTransfer(address sender, address recipient, uint256 amount,bool takeFee) private {\n        if(!takeFee)\n            removeAllFee();\n        \n        if (_isExcluded[sender] && !_isExcluded[recipient]) {\n            _transferFromExcluded(sender, recipient, amount);\n        } else if (!_isExcluded[sender] && _isExcluded[recipient]) {\n            _transferToExcluded(sender, recipient, amount);\n        } else if (!_isExcluded[sender] && !_isExcluded[recipient]) {\n            _transferStandard(sender, recipient, amount);\n        } else if (_isExcluded[sender] && _isExcluded[recipient]) {\n            _transferBothExcluded(sender, recipient, amount);\n        } else {\n            _transferStandard(sender, recipient, amount);\n        }\n        \n        if(!takeFee)\n            restoreAllFee();\n    }\n\n    function _transferStandard(address sender, address recipient, uint256 tAmount) private {\n        (uint256 rAmount, uint256 rTransferAmount, uint256 rFee, uint256 tTransferAmount, uint256 tFee, uint256 tLiquidity, uint256 tMarketing) = _getValues(tAmount);\n        _rOwned[sender] = _rOwned[sender].sub(rAmount);\n        _rOwned[recipient] = _rOwned[recipient].add(rTransferAmount);\n        _takeLiquidity(tLiquidity);\n        _takeMarketing(tMarketing);\n        _reflectFee(rFee, tFee);\n        emit Transfer(sender, recipient, tTransferAmount);\n    }\n\n    function _transferToExcluded(address sender, address recipient, uint256 tAmount) private {\n        (uint256 rAmount, uint256 rTransferAmount, uint256 rFee, uint256 tTransferAmount, uint256 tFee, uint256 tLiquidity, uint256 tMarketing) = _getValues(tAmount);\n        _rOwned[sender] = _rOwned[sender].sub(rAmount);\n        _tOwned[recipient] = _tOwned[recipient].add(tTransferAmount);\n        _rOwned[recipient] = _rOwned[recipient].add(rTransferAmount);           \n        _takeLiquidity(tLiquidity);\n        _takeMarketing(tMarketing);\n        _reflectFee(rFee, tFee);\n        emit Transfer(sender, recipient, tTransferAmount);\n    }\n\n    function _transferFromExcluded(address sender, address recipient, uint256 tAmount) private {\n        (uint256 rAmount, uint256 rTransferAmount, uint256 rFee, uint256 tTransferAmount, uint256 tFee, uint256 tLiquidity, uint256 tMarketing) = _getValues(tAmount);\n        _tOwned[sender] = _tOwned[sender].sub(tAmount);\n        _rOwned[sender] = _rOwned[sender].sub(rAmount);\n        _rOwned[recipient] = _rOwned[recipient].add(rTransferAmount);   \n        _takeLiquidity(tLiquidity);\n        _takeMarketing(tMarketing);\n        _reflectFee(rFee, tFee);\n        emit Transfer(sender, recipient, tTransferAmount);\n    }\n}",
  "sourcePath": "C:\\Users\\TheLazyCoder\\source\\repos\\LacePay\\LeisurePay Website\\erc-20-contract\\contracts\\LPY.sol",
  "compiler": {
    "name": "solc",
    "version": "0.8.9+commit.e5eed63a.Emscripten.clang"
  },
  "schemaVersion": "3.4.4",
  "updatedAt": "2022-01-24T22:38:11.521Z",
  "networkType": "ethereum",
  "devdoc": {
    "kind": "dev",
    "methods": {
      "allowance(address,address)": {
        "details": "Returns the remaining number of tokens that `spender` will be allowed to spend on behalf of `owner` through {transferFrom}. This is zero by default. This value changes when {approve} or {transferFrom} are called."
      },
      "approve(address,uint256)": {
        "details": "Sets `amount` as the allowance of `spender` over the caller's tokens. Returns a boolean value indicating whether the operation succeeded. IMPORTANT: Beware that changing an allowance with this method brings the risk that someone may use both the old and the new allowance by unfortunate transaction ordering. One possible solution to mitigate this race condition is to first reduce the spender's allowance to 0 and set the desired value afterwards: https://github.com/ethereum/EIPs/issues/20#issuecomment-263524729 Emits an {Approval} event."
      },
      "balanceOf(address)": {
        "details": "Returns the amount of tokens owned by `account`."
      },
      "owner()": {
        "details": "Returns the address of the current owner."
      },
      "renounceOwnership()": {
        "details": "Leaves the contract without owner. It will not be possible to call `onlyOwner` functions anymore. Can only be called by the current owner. NOTE: Renouncing ownership will leave the contract without an owner, thereby removing any functionality that is only available to the owner."
      },
      "totalSupply()": {
        "details": "Returns the amount of tokens in existence."
      },
      "transfer(address,uint256)": {
        "details": "Moves `amount` tokens from the caller's account to `recipient`. Returns a boolean value indicating whether the operation succeeded. Emits a {Transfer} event."
      },
      "transferFrom(address,address,uint256)": {
        "details": "Moves `amount` tokens from `sender` to `recipient` using the allowance mechanism. `amount` is then deducted from the caller's allowance. Returns a boolean value indicating whether the operation succeeded. Emits a {Transfer} event."
      },
      "transferOwnership(address)": {
        "details": "Transfers ownership of the contract to a new account (`newOwner`). Can only be called by the current owner."
      },
      "updateMaxPerc(uint256)": {
        "details": "Function to change the max transaction percentage, percentage is in precision of 10000",
        "params": {
          "_newMax": "The new max transaction percentage"
        }
      }
    },
    "version": 1
  },
  "userdoc": {
    "kind": "user",
    "methods": {},
    "notice": "Features: 3% fee auto add to the liquidity pool 2% fee auto distribute to all holders 1% fee to marketing",
    "version": 1
  }
}