{
  "contractName": "Presale",
  "abi": [
    {
      "inputs": [],
      "stateMutability": "nonpayable",
      "type": "constructor"
    },
    {
      "anonymous": false,
      "inputs": [
        {
          "indexed": true,
          "internalType": "address",
          "name": "previousOwner",
          "type": "address"
        },
        {
          "indexed": true,
          "internalType": "address",
          "name": "newOwner",
          "type": "address"
        }
      ],
      "name": "OwnershipTransferred",
      "type": "event"
    },
    {
      "anonymous": false,
      "inputs": [
        {
          "indexed": false,
          "internalType": "address",
          "name": "account",
          "type": "address"
        }
      ],
      "name": "Paused",
      "type": "event"
    },
    {
      "anonymous": false,
      "inputs": [
        {
          "indexed": false,
          "internalType": "uint256",
          "name": "eth",
          "type": "uint256"
        },
        {
          "indexed": false,
          "internalType": "uint256",
          "name": "tokenAmount",
          "type": "uint256"
        },
        {
          "indexed": true,
          "internalType": "uint256",
          "name": "rate",
          "type": "uint256"
        },
        {
          "indexed": true,
          "internalType": "address",
          "name": "beneficiary",
          "type": "address"
        }
      ],
      "name": "TokenPurchase",
      "type": "event"
    },
    {
      "anonymous": false,
      "inputs": [
        {
          "indexed": false,
          "internalType": "address",
          "name": "account",
          "type": "address"
        }
      ],
      "name": "Unpaused",
      "type": "event"
    },
    {
      "inputs": [
        {
          "internalType": "address",
          "name": "",
          "type": "address"
        }
      ],
      "name": "contributions",
      "outputs": [
        {
          "internalType": "uint256",
          "name": "",
          "type": "uint256"
        }
      ],
      "stateMutability": "view",
      "type": "function",
      "constant": true
    },
    {
      "inputs": [],
      "name": "initialized",
      "outputs": [
        {
          "internalType": "bool",
          "name": "",
          "type": "bool"
        }
      ],
      "stateMutability": "view",
      "type": "function",
      "constant": true
    },
    {
      "inputs": [],
      "name": "owner",
      "outputs": [
        {
          "internalType": "address",
          "name": "",
          "type": "address"
        }
      ],
      "stateMutability": "view",
      "type": "function",
      "constant": true
    },
    {
      "inputs": [],
      "name": "paused",
      "outputs": [
        {
          "internalType": "bool",
          "name": "",
          "type": "bool"
        }
      ],
      "stateMutability": "view",
      "type": "function",
      "constant": true
    },
    {
      "inputs": [],
      "name": "rate",
      "outputs": [
        {
          "internalType": "uint256",
          "name": "",
          "type": "uint256"
        }
      ],
      "stateMutability": "view",
      "type": "function",
      "constant": true
    },
    {
      "inputs": [],
      "name": "renounceOwnership",
      "outputs": [],
      "stateMutability": "nonpayable",
      "type": "function"
    },
    {
      "inputs": [],
      "name": "token",
      "outputs": [
        {
          "internalType": "contract IERC20",
          "name": "",
          "type": "address"
        }
      ],
      "stateMutability": "view",
      "type": "function",
      "constant": true
    },
    {
      "inputs": [
        {
          "internalType": "address",
          "name": "newOwner",
          "type": "address"
        }
      ],
      "name": "transferOwnership",
      "outputs": [],
      "stateMutability": "nonpayable",
      "type": "function"
    },
    {
      "inputs": [],
      "name": "wallet",
      "outputs": [
        {
          "internalType": "address",
          "name": "",
          "type": "address"
        }
      ],
      "stateMutability": "view",
      "type": "function",
      "constant": true
    },
    {
      "inputs": [],
      "name": "weiRaised",
      "outputs": [
        {
          "internalType": "uint256",
          "name": "",
          "type": "uint256"
        }
      ],
      "stateMutability": "view",
      "type": "function",
      "constant": true
    },
    {
      "inputs": [
        {
          "internalType": "address",
          "name": "",
          "type": "address"
        }
      ],
      "name": "whitelist",
      "outputs": [
        {
          "internalType": "bool",
          "name": "",
          "type": "bool"
        }
      ],
      "stateMutability": "view",
      "type": "function",
      "constant": true
    },
    {
      "stateMutability": "payable",
      "type": "receive",
      "payable": true
    },
    {
      "inputs": [
        {
          "internalType": "contract IERC20",
          "name": "_token",
          "type": "address"
        },
        {
          "internalType": "address",
          "name": "_wallet",
          "type": "address"
        },
        {
          "internalType": "uint256",
          "name": "_rate",
          "type": "uint256"
        }
      ],
      "name": "initialize",
      "outputs": [],
      "stateMutability": "nonpayable",
      "type": "function"
    },
    {
      "inputs": [
        {
          "internalType": "uint256",
          "name": "_bnb",
          "type": "uint256"
        }
      ],
      "name": "bnbToBUSD",
      "outputs": [
        {
          "internalType": "uint256",
          "name": "",
          "type": "uint256"
        }
      ],
      "stateMutability": "view",
      "type": "function",
      "constant": true
    },
    {
      "inputs": [
        {
          "internalType": "uint256",
          "name": "_busd",
          "type": "uint256"
        }
      ],
      "name": "busdToBNB",
      "outputs": [
        {
          "internalType": "uint256",
          "name": "",
          "type": "uint256"
        }
      ],
      "stateMutability": "view",
      "type": "function",
      "constant": true
    },
    {
      "inputs": [],
      "name": "buyTokens",
      "outputs": [],
      "stateMutability": "payable",
      "type": "function",
      "payable": true
    },
    {
      "inputs": [
        {
          "internalType": "address",
          "name": "_beneficiary",
          "type": "address"
        }
      ],
      "name": "getUserContribution",
      "outputs": [
        {
          "internalType": "uint256",
          "name": "",
          "type": "uint256"
        }
      ],
      "stateMutability": "view",
      "type": "function",
      "constant": true
    },
    {
      "inputs": [
        {
          "internalType": "uint256",
          "name": "_weiAmount",
          "type": "uint256"
        }
      ],
      "name": "getTokenAmount",
      "outputs": [
        {
          "internalType": "uint256",
          "name": "",
          "type": "uint256"
        }
      ],
      "stateMutability": "view",
      "type": "function",
      "constant": true
    },
    {
      "inputs": [],
      "name": "pause",
      "outputs": [],
      "stateMutability": "nonpayable",
      "type": "function"
    },
    {
      "inputs": [],
      "name": "unPause",
      "outputs": [],
      "stateMutability": "nonpayable",
      "type": "function"
    },
    {
      "inputs": [
        {
          "internalType": "address",
          "name": "_newWallet",
          "type": "address"
        }
      ],
      "name": "changeWallet",
      "outputs": [],
      "stateMutability": "nonpayable",
      "type": "function"
    },
    {
      "inputs": [
        {
          "internalType": "uint256",
          "name": "_newRate",
          "type": "uint256"
        }
      ],
      "name": "changeRate",
      "outputs": [],
      "stateMutability": "nonpayable",
      "type": "function"
    },
    {
      "inputs": [],
      "name": "recoverStuckETH",
      "outputs": [],
      "stateMutability": "nonpayable",
      "type": "function"
    },
    {
      "inputs": [
        {
          "internalType": "contract IERC20",
          "name": "_token",
          "type": "address"
        }
      ],
      "name": "recoverStuckToken",
      "outputs": [],
      "stateMutability": "nonpayable",
      "type": "function"
    },
    {
      "inputs": [],
      "name": "recoverRemainingToken",
      "outputs": [],
      "stateMutability": "nonpayable",
      "type": "function"
    }
  ],
  "bytecode": "0x608060405266470de4df82000060055534801561001b57600080fd5b506000805460ff1916905561002f336100a6565b6007805474d99d1c33f9fc3444f8101754abc46c52416550d100610100600160a81b0319909116179055600880546001600160a01b0319908116738301f2213c0eed49a7e28ae4c3e91722919b8b47179091556009805490911673094616f0bdfb0b526bd735bf66eca0ad254ca81f1790556100ff565b600080546001600160a01b03838116610100818102610100600160a81b0319851617855560405193049190911692909183917f8be0079c531659141344cd1fd0a4f28419497f9722a3daafe3b4186f6b6457e091a35050565b6113cb8061010e6000396000f3fe60806040526004361061014f5760003560e01c80638456cb59116100b6578063c2507ac11161006f578063c2507ac1146103c6578063d0febe4c146103e6578063f2fde38b146103ee578063f747fb881461040e578063f7b188a51461042e578063fc0c546a1461044357600080fd5b80638456cb59146102e85780638da5cb5b146102fd57806397cb19101461032057806398b9a2dc146103405780639b19251a14610360578063bb8b2b471461039057600080fd5b8063521eb27311610108578063521eb273146102395780635c975abb14610271578063715018a61461028957806374e7493b1461029e5780637dfdbcb5146102be57806381a16445146102d357600080fd5b8063158ef93e146101635780631794bb3c146101925780632c4e722e146101b257806339733846146101d65780634042b66f146101f657806342e94c901461020c57600080fd5b3661015e5761015c610463565b005b600080fd5b34801561016f57600080fd5b5060075461017d9060ff1681565b60405190151581526020015b60405180910390f35b34801561019e57600080fd5b5061015c6101ad3660046110d0565b6104f6565b3480156101be57600080fd5b506101c860055481565b604051908152602001610189565b3480156101e257600080fd5b506101c86101f1366004611111565b6105ba565b34801561020257600080fd5b506101c860065481565b34801561021857600080fd5b506101c861022736600461112a565b60016020526000908152604090205481565b34801561024557600080fd5b50600354610259906001600160a01b031681565b6040516001600160a01b039091168152602001610189565b34801561027d57600080fd5b5060005460ff1661017d565b34801561029557600080fd5b5061015c610718565b3480156102aa57600080fd5b5061015c6102b9366004611111565b610754565b3480156102ca57600080fd5b5061015c6107ab565b3480156102df57600080fd5b5061015c6107f0565b3480156102f457600080fd5b5061015c61086d565b34801561030957600080fd5b5060005461010090046001600160a01b0316610259565b34801561032c57600080fd5b506101c861033b366004611111565b6108eb565b34801561034c57600080fd5b5061015c61035b36600461112a565b610a40565b34801561036c57600080fd5b5061017d61037b36600461112a565b60026020526000908152604090205460ff1681565b34801561039c57600080fd5b506101c86103ab36600461112a565b6001600160a01b031660009081526001602052604090205490565b3480156103d257600080fd5b506101c86103e1366004611111565b610a92565b61015c610463565b3480156103fa57600080fd5b5061015c61040936600461112a565b610ac7565b34801561041a57600080fd5b5061015c61042936600461112a565b610b68565b34801561043a57600080fd5b5061015c610ca0565b34801561044f57600080fd5b50600454610259906001600160a01b031681565b333461046f8282610cfa565b600061047a82610a92565b90508160065461048a919061115d565b6006556104978382610d17565b60055460408051848152602081018490526001600160a01b03861692917f05ee963de467c4a0f8165365bf8b17a3de56eee5a7e6b246ebb2e2de1c30dd02910160405180910390a36104e98383610d21565b6104f1610d65565b505050565b6000546001600160a01b0361010090910416331461052f5760405162461bcd60e51b815260040161052690611175565b60405180910390fd5b60075460ff16156105785760405162461bcd60e51b8152602060048201526013602482015272105b1c9958591e481a5b9a5d1a585b1a5e9959606a1b6044820152606401610526565b600480546001600160a01b039485166001600160a01b03199182161790915560038054939094169216919091179091556005556007805460ff19166001179055565b60408051600280825260608201835260009283929190602083019080368337505060095482519293506001600160a01b0316918391506000906105ff576105ff6111c0565b6001600160a01b039283166020918202929092010152600854825191169082906001908110610630576106306111c0565b6001600160a01b03928316602091820292909201015260075460405163d06ca61f60e01b81526000926101009092049091169063d06ca61f9061068190670de0b6b3a76400009086906004016111d6565b60006040518083038186803b15801561069957600080fd5b505afa1580156106ad573d6000803e3d6000fd5b505050506040513d6000823e601f3d908101601f191682016040526106d5919081019061122d565b9050670de0b6b3a764000084826001815181106106f4576106f46111c0565b602002602001015161070691906112eb565b610710919061130a565b949350505050565b6000546001600160a01b036101009091041633146107485760405162461bcd60e51b815260040161052690611175565b6107526000610e0d565b565b60005460ff166107765760405162461bcd60e51b81526004016105269061132c565b6000546001600160a01b036101009091041633146107a65760405162461bcd60e51b815260040161052690611175565b600555565b6000546001600160a01b036101009091041633146107db5760405162461bcd60e51b815260040161052690611175565b600454610752906001600160a01b0316610b68565b6000546001600160a01b036101009091041633146108205760405162461bcd60e51b815260040161052690611175565b6003546040516001600160a01b03909116904790600081818185875af1925050503d80600081146104f1576040519150601f19603f3d011682016040523d82523d6000602084013e505050565b60005460ff16156108b35760405162461bcd60e51b815260206004820152601060248201526f14185d5cd8589b194e881c185d5cd95960821b6044820152606401610526565b6000546001600160a01b036101009091041633146108e35760405162461bcd60e51b815260040161052690611175565b610752610e66565b60408051600280825260608201835260009283929190602083019080368337505060085482519293506001600160a01b031691839150600090610930576109306111c0565b6001600160a01b039283166020918202929092010152600954825191169082906001908110610961576109616111c0565b6001600160a01b03928316602091820292909201015260075460405163d06ca61f60e01b81526000926101009092049091169063d06ca61f906109b290670de0b6b3a76400009086906004016111d6565b60006040518083038186803b1580156109ca57600080fd5b505afa1580156109de573d6000803e3d6000fd5b505050506040513d6000823e601f3d908101601f19168201604052610a06919081019061122d565b905080600181518110610a1b57610a1b6111c0565b6020026020010151670de0b6b3a7640000610a36919061130a565b610710908561130a565b6000546001600160a01b03610100909104163314610a705760405162461bcd60e51b815260040161052690611175565b600380546001600160a01b0319166001600160a01b0392909216919091179055565b600080610a9e836105ba565b600554909150610ab682670de0b6b3a76400006112eb565b610ac0919061130a565b9392505050565b6000546001600160a01b03610100909104163314610af75760405162461bcd60e51b815260040161052690611175565b6001600160a01b038116610b5c5760405162461bcd60e51b815260206004820152602660248201527f4f776e61626c653a206e6577206f776e657220697320746865207a65726f206160448201526564647265737360d01b6064820152608401610526565b610b6581610e0d565b50565b6000546001600160a01b03610100909104163314610b985760405162461bcd60e51b815260040161052690611175565b6003546040516370a0823160e01b81523060048201526001600160a01b038381169263a9059cbb9291169083906370a082319060240160206040518083038186803b158015610be657600080fd5b505afa158015610bfa573d6000803e3d6000fd5b505050506040513d601f19601f82011682018060405250810190610c1e919061135a565b6040516001600160e01b031960e085901b1681526001600160a01b0390921660048301526024820152604401602060405180830381600087803b158015610c6457600080fd5b505af1158015610c78573d6000803e3d6000fd5b505050506040513d601f19601f82011682018060405250810190610c9c9190611373565b5050565b60005460ff16610cc25760405162461bcd60e51b81526004016105269061132c565b6000546001600160a01b03610100909104163314610cf25760405162461bcd60e51b815260040161052690611175565b610752610efe565b6001600160a01b038216610d0d57600080fd5b80610c9c57600080fd5b610c9c8282610f51565b6001600160a01b038216600090815260016020526040902054610d4590829061115d565b6001600160a01b0390921660009081526001602052604090209190915550565b60035460405160009182916001600160a01b039091169034908381818185875af1925050503d8060008114610db6576040519150601f19603f3d011682016040523d82523d6000602084013e610dbb565b606091505b509150915081610c9c5760405162461bcd60e51b815260206004820152601760248201527f4661696c656420746f20666f72776172642066756e64730000000000000000006044820152606401610526565b600080546001600160a01b03838116610100818102610100600160a81b0319851617855560405193049190911692909183917f8be0079c531659141344cd1fd0a4f28419497f9722a3daafe3b4186f6b6457e091a35050565b60005460ff1615610eac5760405162461bcd60e51b815260206004820152601060248201526f14185d5cd8589b194e881c185d5cd95960821b6044820152606401610526565b6000805460ff191660011790557f62e78cea01bee320cd4e420270b5ea74000d11b0c9f74754ebdbfc544b05a258610ee13390565b6040516001600160a01b03909116815260200160405180910390a1565b60005460ff16610f205760405162461bcd60e51b81526004016105269061132c565b6000805460ff191690557f5db9ee0a495bf2e6ff9c91a7834c1ba4fdd244a5e8aa4e537bd38aeae4b073aa33610ee1565b600480546040516370a0823160e01b8152309281019290925282916001600160a01b03909116906370a082319060240160206040518083038186803b158015610f9957600080fd5b505afa158015610fad573d6000803e3d6000fd5b505050506040513d601f19601f82011682018060405250810190610fd1919061135a565b10156110335760405162461bcd60e51b815260206004820152602b60248201527f43726f776473616c652042616c616e636520646f6573206e6f7420737570706f60448201526a727420707572636861736560a81b6064820152608401610526565b6004805460405163a9059cbb60e01b81526001600160a01b03858116938201939093526024810184905291169063a9059cbb90604401602060405180830381600087803b15801561108357600080fd5b505af1158015611097573d6000803e3d6000fd5b505050506040513d601f19601f820116820180604052508101906104f19190611373565b6001600160a01b0381168114610b6557600080fd5b6000806000606084860312156110e557600080fd5b83356110f0816110bb565b92506020840135611100816110bb565b929592945050506040919091013590565b60006020828403121561112357600080fd5b5035919050565b60006020828403121561113c57600080fd5b8135610ac0816110bb565b634e487b7160e01b600052601160045260246000fd5b6000821982111561117057611170611147565b500190565b6020808252818101527f4f776e61626c653a2063616c6c6572206973206e6f7420746865206f776e6572604082015260600190565b634e487b7160e01b600052604160045260246000fd5b634e487b7160e01b600052603260045260246000fd5b6000604082018483526020604081850152818551808452606086019150828701935060005b818110156112205784516001600160a01b0316835293830193918301916001016111fb565b5090979650505050505050565b6000602080838503121561124057600080fd5b825167ffffffffffffffff8082111561125857600080fd5b818501915085601f83011261126c57600080fd5b81518181111561127e5761127e6111aa565b8060051b604051601f19603f830116810181811085821117156112a3576112a36111aa565b6040529182528482019250838101850191888311156112c157600080fd5b938501935b828510156112df578451845293850193928501926112c6565b98975050505050505050565b600081600019048311821515161561130557611305611147565b500290565b60008261132757634e487b7160e01b600052601260045260246000fd5b500490565b60208082526014908201527314185d5cd8589b194e881b9bdd081c185d5cd95960621b604082015260600190565b60006020828403121561136c57600080fd5b5051919050565b60006020828403121561138557600080fd5b81518015158114610ac057600080fdfea26469706673582212200807f3614090eb33ed35fa8cce2936dc35f6b64fdce37c9bdfb9529e41493edc64736f6c63430008090033",
  "immutableReferences": {},
  "source": "// SPDX-License-Identifier: MIT\npragma solidity >=0.8.0 <0.9.0;\n\nimport \"@openzeppelin/contracts/token/ERC20/IERC20.sol\";\nimport \"@openzeppelin/contracts/access/Ownable.sol\";\nimport \"@openzeppelin/contracts/security/Pausable.sol\";\n\ninterface IPancakeRouter01 {\n  function getAmountsOut(uint amountIn, address[] calldata path) external view returns (uint[] memory amounts);\n}\n\n/**\n * @title Presale Contract\n */\ncontract Presale is Pausable, Ownable {\n\n  mapping(address => uint256) public contributions;\n  mapping(address => bool) public whitelist;\n\n  // Address where funds are collected\n  address public wallet;\n  IERC20 public token;\n\n  // How many BUSD for a Token\n  uint256 public rate = 0.02 ether;\n\n  // Amount of wei raised\n  uint256 public weiRaised;\n  bool public initialized;\n\n  IPancakeRouter01 private router;\n  address private BUSD;\n  address private WBNB;\n  \n  /**\n   * Event for token purchase logging\n   * @param eth weis paid for purchase\n   * @param tokenAmount amount of tokens purchased\n   * @param rate presale rate of the purchase\n   * @param beneficiary who bought the tokens\n  */\n  event TokenPurchase(\n    uint256 eth,\n    uint256 tokenAmount,\n    uint256 indexed rate,\n    address indexed beneficiary\n  );\n\n  constructor() {\n    router = IPancakeRouter01(0xD99D1c33F9fC3444f8101754aBC46c52416550D1); //TESTNET\n    // router = IPancakeRouter01(0x10ED43C718714eb63d5aA57B78B54704E256024E); // MAINNET\n\n    BUSD = 0x8301F2213c0eeD49a7E28Ae4c3e91722919B8B47; //TESTNET\n    // BUSD = 0xe9e7CEA3DedcA5984780Bafc599bD69ADd087D56; // MAINNET\n\n    WBNB = 0x094616F0BdFB0b526bD735Bf66Eca0Ad254ca81F; //TESTNET\n    // WBNB = 0xbb4CdB9CBd36B01bD1cBaEBF2De08d9173bc095c; // MAINNET\n  }\n\n  function initialize(IERC20 _token, address _wallet, uint256 _rate) public onlyOwner {\n    require(!initialized, \"Already initialized\");\n    token = _token;\n    wallet = _wallet;\n    rate = _rate;\n    initialized = true;\n  }\n\n  /**\n   * @dev fallback function ***DO NOT OVERRIDE***\n  */\n  receive () external payable {\n    buyTokens();\n  }\n\n  function bnbToBUSD(uint256 _bnb) public view returns(uint){\n    address[] memory path = new address[](2);\n    path[0] = WBNB;\n    path[1] = BUSD;\n    uint[] memory amounts = router.getAmountsOut(1 ether, path);\n\n    return (amounts[1] * _bnb) / 1 ether;\n  }\n\n  function busdToBNB(uint256 _busd) public view returns(uint){\n    address[] memory path = new address[](2);\n    path[0] = BUSD;\n    path[1] = WBNB;\n    uint[] memory amounts = router.getAmountsOut(1 ether, path);\n\n    return _busd / (1 ether /amounts[1]);\n  }\n  \n  /**\n   * @dev low level token purchase ***DO NOT OVERRIDE***\n  */\n  function buyTokens() public payable {\n    address _beneficiary = msg.sender;\n    uint256 weiAmount = msg.value;\n\n    _preValidatePurchase(_beneficiary, weiAmount);\n\n    // calculate token amount to be created\n    uint256 tokens = getTokenAmount(weiAmount);\n\n    // update state\n    weiRaised = weiRaised + weiAmount;\n\n    _processPurchase(_beneficiary, tokens);\n    emit TokenPurchase(weiAmount, tokens, rate, _beneficiary);\n\n    _updatePurchasingState(_beneficiary, weiAmount);\n\n    _forwardFunds();\n  }\n\n  /**\n   * @dev Returns the amount contributed so far by a sepecific user.\n   * @param _beneficiary Address of contributor\n   * @return User contribution so far\n   */\n  function getUserContribution(address _beneficiary)\n    public view returns (uint256)\n  {\n    return contributions[_beneficiary];\n  }\n  /**\n   * @dev Extend parent behavior requiring purchase to respect the user's funding cap.\n   * @param _beneficiary Token purchaser\n   * @param _weiAmount Amount of wei contributed\n   */\n  function _preValidatePurchase(\n    address _beneficiary,\n    uint256 _weiAmount\n  )\n    internal\n    pure\n  {\n    require(_beneficiary != address(0));\n    require(_weiAmount != 0);\n  }\n  \n  /**\n   * @dev Source of tokens. Override this method to modify the way in which the crowdsale ultimately gets and sends its tokens.\n   * @param _beneficiary Address performing the token purchase\n   * @param _tokenAmount Number of tokens to be emitted\n  */\n  function _deliverTokens(\n    address _beneficiary,\n    uint256 _tokenAmount\n  )\n    internal\n  {\n    require(token.balanceOf(address(this)) >= _tokenAmount, \"Crowdsale Balance does not support purchase\");\n    token.transfer(_beneficiary, _tokenAmount);\n  }\n\n  /**\n   * @dev Executed when a purchase has been validated and is ready to be executed. Not necessarily emits/sends tokens.\n   * @param _beneficiary Address receiving the tokens\n   * @param _tokenAmount Number of tokens to be purchased\n  */\n  function _processPurchase(\n    address _beneficiary,\n    uint256 _tokenAmount\n  )\n    internal\n  {\n    _deliverTokens(_beneficiary, _tokenAmount);\n  }\n\n  /**\n   * @dev Extend parent behavior to update user contributions\n   * @param _beneficiary Token purchaser\n   * @param _weiAmount Amount of wei contributed\n   */\n  function _updatePurchasingState(\n    address _beneficiary,\n    uint256 _weiAmount\n  )\n    internal\n  {\n    contributions[_beneficiary] = contributions[_beneficiary] + _weiAmount;\n  }\n\n  /**\n   * @dev Override to extend the way in which ether is converted to tokens.\n   * @param _weiAmount Value in wei to be converted into tokens\n   * @return Number of tokens that can be purchased with the specified _weiAmount\n  */\n  function getTokenAmount(uint256 _weiAmount)\n    public view returns (uint256)\n  {\n    uint busd = bnbToBUSD(_weiAmount);\n    return (busd*1 ether) / rate;\n  }\n  \n  /**\n   * @dev Overrides Crowdsale fund forwarding, sending funds to vault.\n   */\n  function _forwardFunds() internal {\n    (bool success, bytes memory data) = wallet.call{value:msg.value}(\"\");\n    require(success, \"Failed to forward funds\");\n  }\n\n  function pause() public whenNotPaused onlyOwner {\n    _pause();\n  }\n\n  function unPause() public whenPaused onlyOwner {\n    _unpause();\n  }\n\n  function changeWallet(address _newWallet) public onlyOwner {\n    wallet = _newWallet;\n  }\n\n  function changeRate(uint256 _newRate) public whenPaused onlyOwner {\n    rate = _newRate;\n  }\n\n  function recoverStuckETH() public onlyOwner {\n    wallet.call{value:address(this).balance}(\"\");\n  }\n\n  function recoverStuckToken(IERC20 _token) public onlyOwner {\n    _token.transfer(wallet, _token.balanceOf(address(this)));\n  }\n\n  function recoverRemainingToken() public onlyOwner {\n    recoverStuckToken(token);\n  }\n}",
  "sourcePath": "C:\\Users\\TheLazyCoder\\source\\repos\\LacePay\\LeisurePay Website\\crowdsale\\contracts\\Presale.sol",
  "compiler": {
    "name": "solc",
    "version": "0.8.9+commit.e5eed63a.Emscripten.clang"
  },
  "schemaVersion": "3.4.4",
  "updatedAt": "2022-02-01T16:12:15.510Z",
  "networkType": "ethereum",
  "devdoc": {
    "events": {
      "TokenPurchase(uint256,uint256,uint256,address)": {
        "params": {
          "beneficiary": "who bought the tokens",
          "eth": "weis paid for purchase",
          "rate": "presale rate of the purchase",
          "tokenAmount": "amount of tokens purchased"
        }
      }
    },
    "kind": "dev",
    "methods": {
      "buyTokens()": {
        "details": "low level token purchase ***DO NOT OVERRIDE***"
      },
      "getTokenAmount(uint256)": {
        "details": "Override to extend the way in which ether is converted to tokens.",
        "params": {
          "_weiAmount": "Value in wei to be converted into tokens"
        },
        "returns": {
          "_0": "Number of tokens that can be purchased with the specified _weiAmount"
        }
      },
      "getUserContribution(address)": {
        "details": "Returns the amount contributed so far by a sepecific user.",
        "params": {
          "_beneficiary": "Address of contributor"
        },
        "returns": {
          "_0": "User contribution so far"
        }
      },
      "owner()": {
        "details": "Returns the address of the current owner."
      },
      "paused()": {
        "details": "Returns true if the contract is paused, and false otherwise."
      },
      "renounceOwnership()": {
        "details": "Leaves the contract without owner. It will not be possible to call `onlyOwner` functions anymore. Can only be called by the current owner. NOTE: Renouncing ownership will leave the contract without an owner, thereby removing any functionality that is only available to the owner."
      },
      "transferOwnership(address)": {
        "details": "Transfers ownership of the contract to a new account (`newOwner`). Can only be called by the current owner."
      }
    },
    "title": "Presale Contract",
    "version": 1
  },
  "userdoc": {
    "events": {
      "TokenPurchase(uint256,uint256,uint256,address)": {
        "notice": "Event for token purchase logging"
      }
    },
    "kind": "user",
    "methods": {},
    "version": 1
  }
}